:100000000C94AF180C94E0180C94E0180C94E018C1
:100010000C94E0180C94E0180C94E0180C94E01880
:100020000C94E0180C94E0180C94E0180C94E01870
:100030000C94E0180C9476670C94E0180C94E0187B
:100040000C94E0180C94BC910C94E0180C94E018FB
:100050000C94E0180C94E0180C94BBD00C9481E63E
:100060000C94E0180C947A360C9470360C94E018CA
:100070000C94E0180C94E0180C94E0180C94E01820
:100080000C94E0180C94E0180C94E0180C94E01810
:100090000C94E0180C94E0180C94E0180C94E01800
:1000A0000C94E0180C94E0180C94E0180C94E018F0
:1000B0000C94E0180C94E0180C94E0180C94E018E0
:1000C0000C94E0180C94E0180C94E0180C94E018D0
:1000D0000C94E0180C94E0180C94E0180C94E018C0
:1000E0000C94E018A433A933AE33B833C2333B3495
:1000F000CC33D433DC33E633F033FA3309341334FE
:100100003B341D342734313421D9A5D7DED75DD90E
:10011000DED7DED7DED7DED7DED7DED7DED7DED737
:10012000DED7DED7DED7DED7DED7DED7DED7DED727
:10013000DED7DED7DED7DED7DED7DED7DED7DED717
:10014000DED7DED757D9DED7DED7DED7DED7DED78C
:10015000DED7DED7DED730D9DED7DED7DED7DED7A3
:10016000DED7DED7DED7DED7DED7DED774D9DBD752
:10017000ECE5EFE5DEE5E2E5E6E526E6F3E5F7E5C5
:10018000FDE501E605E60BE60FE613E626E619E6D1
:100190001DE621E6084AD73B3BCE016E84BCBFFD7D
:1001A000C12F3D6C74319ABD56833DDA3D00C77F47
:1001B00011BED9E4BB4C3E916BAAAABE00000080E0
:1001C0003F05A84CCDB2D44EB93836A9020C50B96F
:1001D000918688083CA6AAAA2ABE000000803F009B
:1001E0000C948E570C9475A20C94593A0C9426E6F4
:1001F0000C94DEE50C9466370C9463390C9401E69C
:100200000C9469A20C9440380C9402BE0C9467A222
:100210000C9474D90C945F3A0C94AC660C9430D95D
:100220000C94E0370C9432D70C94F0330C94AE332A
:100230000C944D370C94BD5B0C94F3E50C944A3A46
:100240000C94CD390C940A3A0C943B340C943E57E0
:100250000C94833A0C94DBD70C94DA360C94F83770
:100260000C94CC330C9427340C949C3E0C94114089
:100270000C9413E60C94F5360C9454660C94A43349
:100280000C946F370C94225A0C9483D00C94CEAB00
:100290000C9401BE0C94FF560C94C7570C9405BEE9
:1002A0000C94D05A0C940E750C94E7F90C94EFE56D
:1002B0000C94F6560C947D3A0C94AFA70C946B3AC0
:1002C0000C9434F80C940F450C94BBA70C942DBEE1
:1002D0000C94CB370C946D740C9477A20C948971A8
:1002E0000C94D4A70C9473A20C94B8370C946BA202
:1002F0000C94D75A0C94275A0C9457D90C940C741C
:100300000C9490A70C9494570C9417400C94AE390D
:100310000C942C5A0C94AF3E0C941B370C944657FB
:100320000C9453A10C947F6F0C947B6F0C948EA74C
:100330000C946FA20C94DED70C94A3570C949737AF
:100340000C941D400C9467A70C9482390C94FB39D3
:100350000C94653A0C9480740C94A1A90C94CEA7CB
:100360000C948FBE0C948D6D0C940FE60C94DAA750
:100370000C94793E0C9408370C94E6E50C94C13645
:100380000C940F400C9480A70C94836F0C942FD77F
:100390000C94EC390C94C0370C946DA20C948257D9
:1003A0000C940BE60C94FDE50C9434370C9421D995
:1003B0000C941D340C94F7E50C94A8570C9419E692
:1003C0000C94703E0C9409340C9499570C9439A4F5
:1003D0000C941DE60C94C2330C949A6D0C945DD968
:1003E0000C94D8660C94713A0C94DC330C9454A79A
:1003F0000C947E660C9401390C94773A0C94133467
:100400000C94885C0C94D4330C94E2E50C9421E6B3
:100410000C944E5E0C9405E60C94805A0C946C3C43
:100420000C94613E0C94A5D70C941D5A0C949E57C5
:100430000C940D400C94B8330C94ECE50C94E6331A
:100440000C9411700C94A9330C947C570C94BB3E03
:100450000C9431340C9471A20C94FA330C9435D76B
:100460000C9488574E414E494E495459494E46CDF9
:10047000CCCC3D0AD7233C17B7D13877CC2B32955B
:1004800095E6241FB14F0A000020410000C8420039
:10049000401C4620BCBE4CCA1B0E5AAEC59D740003
:1004A000407A10F35A00A0724E18090010A5D4E843
:1004B0000000E87648170000E40B54020000CA9AD6
:1004C0003B000000E1F50500008096980000004028
:1004D000420F000000A0860100000010270000006D
:1004E00000E803000000006400000000000A0000B3
:1004F0000000000100000000002C76D888DC674F67
:100500000823DFC1DFAE59E1B1B796E5E3E453C696
:100510003AE651997696E8E6C28426EB898C9B628E
:10052000ED407C6FFCEFBC9C9F40F2BAA56FA5F438
:1005300090055A2AF75C936B6CF9676DC11BFCE060
:10054000E40D47FEF520E6B500D0ED902E030094B3
:100550003577050080841E080000204E0A00000048
:10056000C80C333333330F986E12831141EF8D2152
:1005700014893BE65516CFFEE6DB18D1844B381BB9
:10058000F77C1D901DA4BBE424203284725E22817E
:1005900000C9F124ECA1E53D27434F4D4D554E498F
:1005A000434154494F4E0044525952554E00455212
:1005B000524F525300494E464F004543484F005357
:1005C0006C6565702E2E2E004D65736820706F6906
:1005D0006E74206F7574206F662072616E67650A95
:1005E00000436C69636B20746F20526573756D6591
:1005F0002E2E2E004E6F204D6F76652E00456E64B8
:100600002066696C65206C6973740A0042656769CD
:100610006E2066696C65206C6973740A004E6F20E9
:100620006D656469610A00286E6F2066696C6529D2
:100630000043757272656E742066696C653A2000BD
:100640005344207072696E74696E672062797465B4
:1006500020004E6F74205344207072696E74696E6E
:10066000670A0044656C6574696F6E206661696C29
:1006700065642C2046696C653A200046696C6520EB
:1006800064656C657465643A002569792025696440
:10069000202569682025696D2025697300507269DD
:1006A0006E742074696D653A20006F66660044457B
:1006B0004255473A004D3131322053687574646FAA
:1006C000776E004D31313320530042656420436F13
:1006D0006F6C696E672E2E2E00426564204865613E
:1006E00074696E672E2E2E003344205072696E742A
:1006F0006572204F46462E004348414D4245525FA9
:1007000054454D504552415455524500424142597D
:100710005354455050494E470041524353004D4FAA
:1007200054494F4E5F4D4F44455300544845524D38
:10073000414C5F50524F54454354494F4E004C4F2B
:100740004E475F46494C454E414D45004155544F3B
:100750005245504F52545F53445F53544154555384
:10076000005344434152440050524F4D50545F5344
:100770005550504F525400454D455247454E4359F0
:100780005F50415253455200434153455F4C4947E6
:1007900048545F4252494748544E45535300544FC2
:1007A00047474C455F4C494748545300534F4654C4
:1007B000574152455F504F574552004255494C44AE
:1007C0005F50455243454E54004C4556454C494EAA
:1007D000475F44415441005A5F50524F42450052D6
:1007E000554E4F5554004155544F4C4556454C00BD
:1007F0005052494E545F4A4F420050524F47524563
:100800005353004155544F5245504F52545F544535
:100810004D5000564F4C554D4554524943004249A6
:100820004E4152595F46494C455F5452414E5346E2
:1008300045520053455249414C5F584F4E5F584F07
:100840004646004649524D574152455F4E414D453F
:100850003A4D61726C696E206275676669782D32F7
:100860002E302E7820284E6F7620323520323032CE
:10087000302031363A34393A33352920534F5552E6
:1008800043455F434F44455F55524C3A687474701A
:10089000733A2F2F6769746875622E636F6D2F4DE1
:1008A00061726C696E4669726D776172652F4D6118
:1008B000726C696E2050524F544F434F4C5F5645F7
:1008C0005253494F4E3A312E30204D414348494E04
:1008D000455F545950453A3344205072696E7465EF
:1008E000722045585452554445525F434F554E541B
:1008F0003A3120555549443A636564653261326640
:100900002D343161322D343734382D396231322D66
:100910006335356336326633363766660A002F2F05
:1009200020004D31343520533C696E6465783E209B
:100930006F7574206F662072616E67652028302D98
:1009400031290A00416363656C65726174696F6E79
:100950003A2050003F4A206F7574206F6620726104
:100960006E67652028302E303120746F20302E3392
:10097000290A0020204D61783A200020204D696E20
:100980003A2000536F667420656E6473746F7073E1
:100990003A200046523A0020466C6F773A200020F9
:1009A000643A0020693A0020703A00496E76616C22
:1009B00069642065787472756465720A006469738D
:1009C0000043290A0061626C656420286D696E200D
:1009D00074656D702000436F6C6420657874727567
:1009E0006465732061726520004F46460A004661C7
:1009F0006465204865696768742000426564204C1E
:100A00006576656C696E6720004661696C65642077
:100A1000746F20656E61626C6520426564204C6570
:100A200076656C696E670A00496E76616C69642050
:100A30006D6573682E0A004D34323120696E636F24
:100A4000727265637420706172616D657465722085
:100A500075736167650A004F66667365747320413C
:100A600070706C696564004572723A20546F6F2033
:100A70006661722100546F6F206661722066726F2A
:100A80006D207265666572656E636520706F696E54
:100A9000740A00454550524F4D204F4B0A00446F99
:100AA0006E65207072696E74696E672066696C6528
:100AB0000A004D3737004D333100BA05B505AE0594
:100AC000A70599054572726F722077726974696E15
:100AD0006720746F20454550524F4D210A004D3418
:100AE0003130004D313132004D3130380053544FE8
:100AF000505045442E20005072696E746572207308
:100B0000746F707065642064756520746F20657201
:100B1000726F72732E204669782074686520657242
:100B2000726F7220616E6420757365204D3939399A
:100B300020746F20726573746172742E202854655E
:100B40006D7065726174757265206973207265736A
:100B500065742E2053657420697420616674657213
:100B60002072657374617274696E67290A004E6F32
:100B700020436865636B73756D2077697468206CBA
:100B8000696E65206E756D6265722C204C617374A0
:100B9000204C696E653A2000636865636B73756D00
:100BA000206D69736D617463682C204C61737420CF
:100BB0004C696E653A20004C696E65204E756D6219
:100BC0006572206973206E6F74204C617374204CC1
:100BD000696E65204E756D6265722B312C204C61FB
:100BE0007374204C696E653A20004D3131300053EA
:100BF000442072656164206572726F720A0021215F
:100C0000204B494C4C2063617573656420627920E8
:100C10004B494C4C20627574746F6E2F70696E0A6C
:100C2000002121204B494C4C206361757365642081
:100C3000627920746F6F206D75636820696E6163DF
:100C4000746976652074696D65202D2063757272F4
:100C5000656E7420636F6D6D616E643A200062751D
:100C600073793A2070617573656420666F722069CC
:100C70006E7075740A00627573793A2070617573CD
:100C8000656420666F7220757365720A0062757301
:100C9000793A2070726F63657373696E670A004DED
:100CA000656469612052656D6F766564004D6564A9
:100CB000696120496E736572746564004F666600F1
:100CC0004F6E00496E6974004D34323800496E69C8
:100CD0007469616C697A6520454550524F4D0046F4
:100CE000696C616D656E74004A756E6374696F6ED0
:100CF0002044657600416363656C65726174696F59
:100D00006E0056656C6F6369747900536574204892
:100D10006F6D65204F666673657473004E657874F9
:100D200020436F726E657200446F6E65004E657889
:100D300074004C6576656C696E6720446F6E652142
:100D4000004E65787420506F696E74002569202FFD
:100D50002025750047323920563100436C69636B9A
:100D600020746F20426567696E00486F6D696E6719
:100D70002058595A004C6576656C20436F726E6539
:100D80007273004661646520486569676874004C49
:100D90006576656C204265640054656D70657261AE
:100DA000747572650041425300504C410046616EBB
:100DB000205370656564004E6F7A7A6C65004D61F2
:100DC000696E0050726568656174202420456E6408
:100DD0000050726568656174202420426564004398
:100DE0006F6F6C646F776E00507265686561742018
:100DF0002400466C6F7700A90DA50D20746F6F203D
:100E00006C6F6E6720657874727573696F6E207091
:100E1000726576656E7465640A0020636F6C642089
:100E2000657874727573696F6E2070726576656E21
:100E30007465640A00DB0FC93F45BCDA3F8FB3021B
:100E400040FCF0274056946140FE4B9B4084A5D85F
:100E500040E0231841346A5641E859974164DBD594
:100E6000416E271742B4B75542CE1A9742C8AED545
:100E700042B5885A43D40684BFA65FA7BF7443E037
:100E8000BF10B11AC01C2C58C0E8F697C0B849D69C
:100E9000C04E4E17C124D355C1802497C1A0B5D5EB
:100EA000C1121A17C244AE55C2781797C26CACD59E
:100EB000C267885AC33F0043616E63656C0042613C
:100EC000636B004D6F74696F6E004D38340053745E
:100ED000617274205072696E740043616E6E6F743B
:100EE00020656E746572207375626469723A2000C1
:100EF000022E2E00486F74656E6420746F6F20633D
:100F00006F6C640050726F6365656400446973615F
:100F1000626C6520537465707065727300417574FE
:100F20006F20486F6D650047323800456E636C6F07
:100F300073757265002568753A253032687500252D
:100F40006875642025303268753A2530326875003E
:100F500020202020202020001FE020102010201022
:100F60001020102020102010303008400480030092
:100F70001FE03FF03FF03FF01FE01FE03FF03FF089
:100F80003FF00FC0078003003FFFF038007030FCD7
:100F90003020FC102078102030102C00D02E31D0C2
:100FA0002F7BD02F7BD02E31D02C00D020301020A2
:100FB000781020FC1030FC303800703FFFF03FFF0D
:100FC000F03800703186302387102787902F87D024
:100FD0002F03D02030102078102078102030102FD0
:100FE00003D02F87D0278790238710318630380091
:100FF000703FFFF01FFFF81FFFF8041040020820A9
:101000000208200410400820801041001041000810
:1010100020800410400000001FFFF81FFFF86874D4
:101020007470733A2F2F6D61726C696E66772E6FD4
:101030007267006275676669782D322E302E7800EF
:101040002020506C616E6E657242756666657242F4
:10105000797465733A20002046726565204D656D90
:101060006F72793A2000436F6D70696C65643A2045
:101070004E6F7620323520323032300A00204C61FB
:10108000737420557064617465643A203230323074
:101090002D31312D3235207C20417574686F723AC4
:1010A00020283230313132352C204D536351290AFA
:1010B000006275676669782D322E302E780A004DF1
:1010C00061726C696E0020536F667477617265207F
:1010D00052657365740A00205761746368646F67B2
:1010E0002052657365740A002042726F776E206F1C
:1010F00075742052657365740A00204578746572B2
:101100006E616C2052657365740A00506F7765726A
:1011100055700A006175746F25632E670047323879
:101120005859004D31303031006572726F7220773E
:10113000726974696E6720746F2066696C650A0055
:10114000446F6E6520736176696E672066696C65B1
:101150002E0A004D323900456E6473746F7073004F
:101160002553202563202563202563202563006502
:101170006E6473746F7073206869743A200001FFA5
:10118000FFFFFFFFFFFFFFFFFFFFFFFF0FFFFFFF5F
:10119000FFFFFFFFFFFFFFFFFFFF1E00000000003B
:1011A000000000000007FFFF380000000000000002
:1011B00000000003FFFF70000000000000000000BE
:1011C0000001FFFF600000000000000000000000C0
:1011D000FFFF6000000000000000000000007FFF33
:1011E000C000000000000000007800003FFFC00FBA
:1011F000C0FC00000000007818001FFFC03FE1FFA6
:101200000000000000783C000FFFC07FF3FF80006B
:10121000000000783C0007FFC0FFFFFFC000000097
:1012200000783C0003FFC1F87F87E00000000078F1
:10123000000001FFC1F03F03E00000000078000063
:1012400000FFC1E01E01E01F0003E0783C03F07FD7
:10125000C1E01E01E07FC00FF8783C07FC3FC1E011
:101260001E01E1FFE01FFC783C0FFE1FC1E01E01E4
:10127000E3FFF03FFE783C1FFE0FC1E01E01E3F3E9
:10128000F83F3E783C3F3F07C1E01E01E7E0FC7CB1
:101290001F783C3E1F07C1E01E01E7C07C7C0F7831
:1012A0003C3C0F03C1E01E01E7807C780F783C3C9A
:1012B0000F03C1E01E01E7803C7800783C3C0F033F
:1012C000C1E01E01E7803C7800783C3C0F03C1E0A0
:1012D0001E01E7803C7800783C3C0F03C1E01E0112
:1012E000E7C03C7800783C3C0F03C1E01E01E3E01E
:1012F0003C78007C3C3C0F03C1E01E01E3FF3FF85B
:10130000007FBC3C0F03C1E01E01E1FF3FF8003F3E
:10131000BFFC0F03C1E01E01E0FF3FF8001FBFFC50
:101320000F03C1E01E01E07F3FF8000FBFFC0F0379
:1013300060000000000000000000000000076000E6
:101340000000000000000000000000067000000027
:101350000000000000000000000E38000000000047
:10136000000000000000001C1E0000000000000043
:101370000000000000780FFFFFFFFFFFFFFFFFFFEF
:10138000FFFFFFF001FFFFFFFFFFFFFFFFFFFFFF7A
:10139000FF8070012C0190012701B0012201C001E2
:1013A0001D01F00118011002130130020E0160024C
:1013B000090190020401C002FF000003FA0040038B
:1013C000F5008003F000D003EB002004E600700479
:1013D000E100E004DC004005D700C005D200400673
:1013E000CD00D006C8008007C3003008BE00F0085A
:1013F000B900C009B400B00AAF00B00BAA00D00C0D
:10140000A500000EA000500F9B00C01096005012C7
:10141000910000148C00C0158700B0178200B0192D
:101420007D00D01B7800001E730040206E009022CB
:101430006900F024640040275F0090295A00E02BE7
:101440005500102E500020304B0010324600E03383
:10145000410090353C001037370070383200A03919
:101460002D00B03A2800A03B2300603C1E00103D38
:101470001900903D1400103E0F00703E0A00C03E5F
:101480000500003F0000403FFBFF803FF6FFC03FEC
:10149000F1FF2053697A653A2000534420496E6970
:1014A00074204661696C0053442063617264206F4C
:1014B0006B0A006F70656E526F6F74206661696CA5
:1014C00065640A00766F6C756D652E696E697420AF
:1014D0006661696C65640A004E6F20534420636145
:1014E00072640A004D3234004D3233202573006F90
:1014F00070656E206661696C65642C2046696C6558
:101500003A200046696C652073656C656374656498
:101510000A0046696C65206F70656E65643A20004C
:10152000454E4420535542524F5554494E450A00AA
:101530002220706F73002220706172656E743A22EF
:1015400000535542524F5554494E452043414C4C4F
:10155000207461726765743A220053756263616C2E
:101560006C204F766572666C6F77004578636565B1
:10157000646564206D617820535542524F5554493B
:101580004E452064657074683A0057726974696EDC
:101590006720746F2066696C653A20006672657317
:1015A0006800646F696E67004E6F772000025072AA
:1015B000696E742041626F72746564004D3235004B
:1015C00050617573696E672E2E2E004D6F76696EB1
:1015D000672E2E2E0046696C2E204469612E004530
:1015E00020696E206D6D5E330020082046616374B3
:1015F000002008204D6178002008204D696E0041D0
:1016000075746F74656D70000000000000000000CC
:101610000000000000009B4300009B430000C84303
:1016200053657474696E67732053746F72656400D8
:1016300053657474696E67732053746F72656420A8
:1016400028006F70656E0054524947474552454423
:10165000007A5F6D696E00795F6D696E00785F6D0D
:10166000696E005265706F7274696E6720656E6492
:1016700073746F70207374617475730A00486F6DB2
:10168000696E67204661696C6564005761726E69B6
:101690006E673A20486F6D696E672042756D7020E5
:1016A00044697669736F72203C20310A000000485B
:1016B0004200004842000080400202040000A040B6
:1016C0000000A04000000040FFFFFF4572723A207A
:1016D0004D415854454D50004D415854454D5020B2
:1016E000747269676765726564004572723A204D6D
:1016F000494E54454D50004D494E54454D5020746F
:10170000726967676572656400202F002042403A65
:101710000020403A007C3C3E5E2B3D3F2F5B5D3B12
:101720002C2A225C000009121B242D363F48415A06
:10173000536C657E7719100B023D342F26515843A8
:101740004A757C676E323B2029161F040D7A736838
:10175000615E574C452B2239300F061D14636A71A8
:1017600078474E555C646D767F4049525B2C253E30
:101770003708011A137D746F6659504B42353C2768
:101780002E1118030A565F444D727B60691E170CB8
:10179000053A3328214F465D546B627970070E1568
:1017A0001C232A31384148535A656C777E09001B47
:1017B000122D243F3658514A437C756E671019022A
:1017C0000B343D262F737A6168575E454C3B3229B6
:1017D000201F160D046A6378714E475C55222B302A
:1017E00039060F141D252C373E0108131A6D647F2E
:1017F0007649405B523C352E2718110A03747D66EA
:101800006F5059424B171E050C333A21285F564D35
:10181000447B7269600E071C152A233831464F54E9
:101820005D626B707920520020204D3330312050A2
:10183000005049442073657474696E67733A0020E0
:10184000460020480020204D3134352053004D61A2
:1018500074657269616C206865617475702070616F
:1018600072616D65746572733A00202047323920C9
:101870005720490020204D343230205300417574E8
:101880006F20426564204C6576656C696E673A002E
:1018900020204D323036205800486F6D65206F662D
:1018A000667365743A00204A0020204D323035209E
:1018B0004200416476616E6365643A20423C6D6922
:1018C0006E5F7365676D656E745F74696D655F7576
:1018D000733E20533C6D696E5F666565647261742A
:1018E000653E20543C6D696E5F74726176656C5F15
:1018F00066656564726174653E204A3C6A756E6314
:101900005F6465763E0020540020204D3230342044
:101910005000416363656C65726174696F6E202865
:10192000756E6974732F7332293A20503C70726956
:101930006E745F616363656C3E20523C72657472C5
:101940006163745F616363656C3E20543C747261D3
:1019500076656C5F616363656C3E0020204D3230BC
:10196000312058004D6178696D756D204163636564
:101970006C65726174696F6E2028756E6974732F5F
:101980007332293A0020204D3230332058004D6107
:1019900078696D756D206665656472617465732024
:1019A00028756E6974732F73293A005374657073C8
:1019B0002070657220756E69743A00204400202002
:1019C0004D3230302053002044697361626C65648D
:1019D0000A0046696C616D656E7420736574746984
:1019E0006E67733A0020204D3134392043203B206C
:1019F000556E69747320696E2043656C73697573E5
:101A00000A0020286D6D2900202047323120202037
:101A1000203B20556E69747320696E206D6D002423
:101A2000F4D43050C38E20C2A24017828B701112A2
:101A30007A910D816CD90AA861E108C758660761DF
:101A40005143061E4B5D05C145A7041A4111040907
:101A50003D9803713931034036DB0265339102D47E
:101A6000305402802E1D02632CEE01752AC501B090
:101A700028A001102781018F2564012B244B01E050
:101A8000223401AC211F018D200D01801FFC008438
:101A90001EED00971DDF00B81CD200E61BC600201B
:101AA0001BBC00641AB200B219A8000A19A0006A8F
:101AB000189900D117910040178B00B5168400319A
:101AC000167E00B31579003A157300C7146F0058DD
:101AD000146A00EE1366008813630025135E00C7C6
:101AE000125B006C12570015125400C111510070A6
:101AF000114F0021114B00D61049008D10470046B0
:101B000010440002104200C00F4000800F3E00420F
:101B10000F3C00060F3B00CB0E3800930E37005CE5
:101B20000E3500270E3400F30D3200C10D31009048
:101B30000D3000600D2E00320D2D00050D2C00D94A
:101B40000C2B00AE0C2900850C29005C0C270035FD
:101B50000C27000E0C2600E80B2400C40B2400A068
:101B60000B23007D0B23005A0B2100390B21001899
:101B70000B2000F80A1F00D90A1E00BB0A1E009D98
:101B80000A1D00800A1D00630A1C00470A1B002C66
:101B90000A1B00110A1A00F7091A00DD091900C40E
:101BA000091900AB091900920917007B0918006395
:101BB0000917004C09160036091600200916000AFC
:101BC000091500F5081500E0081400CC081400B849
:101BD000081400A4081400900813007D0812006B7C
:101BE0000813005808120046081200340811002398
:101BF0000811001208110001081100F0071000E0A0
:101C0000071000D0071000C0071000B0070F00A198
:101C100007100091070E0083070F0074070F00657F
:101C2000070E0057070E0049070E003B070D002E58
:101C3000070E0020070D0013070D0006070D00F921
:101C4000060C00ED060D00E0060C00D4060C00C8E2
:101C5000060C00BC060C00B0060C00A4060B009994
:101C6000060C008D060B0082060B0077060B006C3D
:101C7000060B0061060A0057060B004C060A0042DC
:101C8000060A0038060A002E060A0024060A001A70
:101C9000060A001006090007060A00FD050900F4FF
:101CA000050900EB050900E2050900D9050900D086
:101CB000050900C7050900BE050900B5050800AD06
:101CC000050800A50509009C050800940508008C7E
:101CD000050800840508007C050800740508006CF0
:101CE000050700650508005D050700560508004E5C
:101CF00005070047050700400508003805070031C3
:101D00000507002A050700230507001C0506001625
:101D10000507000F0507000805060002050700FB80
:101D2000040600F5040700EE040600E8040600E2DD
:101D3000040700DB040600D5040600CF040600C932
:101D4000040600C3040600BD040600B7040600B183
:101D5000040500AC040600A6040600A00405009BD0
:101D600004060095040500900406008A0405008519
:101D7000040500800406007A04050075040500705F
:101D80000405006B04050066040500610405005CA1
:101D900004050057040500520405004D04050048E1
:101DA000040500430405003E0404003A0405003520
:101DB000040500300404002C04050027040400235B
:101DC0000405001E0404001A040400160405001192
:101DD0000404000D040400090405000404040000C8
:101DE000040400FC030400F8030400F4030400F0FE
:101DF000030400EC030400E8030400E4030400E02F
:101E0000030400DC030400D8030400D4030400D05E
:101E1000030400CC030400C8030300C5030300242B
:101E2000F404D9201BC40C5C0E9804C4095F02653D
:101E3000077101F405F900FB04B30048048700C1F1
:101E40000369005803550003034500BE023A0084AD
:101E500002310053022A002902250004022000E476
:101E6000011C00C8011900AF01170098011400847B
:101E7000011300710110006101100051010E0043B7
:101E8000010D0036010B002B010B0020010B00158A
:101E90000109000C01090003010800FB000800F320
:101EA000000800EB000700E4000600DE000600D892
:101EB000000600D2000600CC000500C7000500C2E5
:101EC000000500BD000400B9000400B5000400B125
:101ED000000400AD000400A9000400A5000300A256
:101EE0000003009F0004009B00030098000300957E
:101EF00000020093000300900003008D0002008B9D
:101F000000030088000200860002008400030081B4
:101F10000002007F0002007D0002007B00020079C9
:101F200000020077000100760002007400020072D7
:101F3000000100710002006F0002006D0001006CE2
:101F40000002006A000100690002006700010066EB
:101F500000010065000100640002006200010061F0
:101F6000000100600001005F0002005D0001005CF4
:101F70000001005B0001005A0001005900010058F7
:101F800000010057000100560001005500010054F7
:101F900000010053000000530001005200010051F5
:101FA000000100500001004F0001004E0000004EF3
:101FB0000001004D0001004C0001004B0000004BEF
:101FC0000001004A000100490001004800000048EB
:101FD00000010047000100460000004600010045E6
:101FE00000000045000100440001004300000043E0
:101FF00000010042000000420001004100000041D9
:10200000000100400001003F0000003F0001003ED1
:102010000000003E0001003D0000003D0001003CCA
:102020000000003C0000003C0001003B0000003BC1
:102030000001003A0000003A0001003900000039B8
:1020400000010038000000380000003800010037AF
:1020500000000037000100360000003600000036A6
:10206000000100350000003500000035000100349B
:102070000000003400000034000100330000003391
:102080000000003300010032000000320000003286
:10209000000100310000003100000031000100307B
:1020A00000000030000000300001002F0000002F71
:1020B0000000002F0000002F0001002E0000002E65
:1020C0000000002E0001002D0000002D0000002D5A
:1020D0000000002D0001002C0000002C0000002C4E
:1020E0000000002C0001002B0000002B0000002B42
:1020F0000000002B0001002A0000002A0000002A36
:102100000000002A00010029000000290000002929
:10211000000000290000002900010028000000281C
:10212000000000280000002800000028000100270F
:102130000000002700000027000000270000002703
:1021400000010026000000260000002600000026F6
:1021500000000026000100250000002500000025E9
:1021600000000025000000250000002500010024DB
:1021700000000024000000240000002400000024CF
:1021800000010023000000230000002300000023C2
:1021900000000023000000230000002300010022B3
:1021A00000000022000000220000002200000022A7
:1021B0000000002200010021000000210000002199
:1021C000000000210000002100000021000000218B
:1021D000000100200000002000000020000000207E
:1021E000000000200000002000000020000000206F
:1021F0000001001F0000001F0000001F0000001F62
:102200000000001F0000001F0000001F0001001E52
:102210000000001E0000001E0000001E0000000460
:102220003700001E290000511B000058100000104C
:10223000090000CC04000078020000410100000009
:10224000002200250028002B002E0031003400025F
:10225000010000050108010B0100002100240027F6
:10226000002A002D003000330001010000040107A6
:10227000010A01050505050705080808080202020C
:10228000020A0A0808040404040101010101010111
:10229000010303030303030303040707070C0C0CE8
:1022A0000C0C0C0C0C0202020206060606060606C0
:1022B000060B0B0B0B0B0B0B0B010210202008085D
:1022C0001020401020408002010201080402010198
:1022D0000204081020408080402010080402018081
:1022E00004020180402010080402010804020101D8
:1022F00002040810204080010204081020408000E1
:10230000002110422063308440A550C660E7700869
:102310008129914AA16BB18CC1ADD1CEE1EFF131F0
:1023200012100273325222B5529442F772D66239B9
:102330009318837BB35AA3BDD39CC3FFF3DEE36240
:1023400024433420040114E664C774A44485546A09
:10235000A54BB528850995EEE5CFF5ACC58DD553D0
:1023600036722611163006D776F6669556B4465B59
:10237000B77AA719973887DFF7FEE79DD7BCC7C4A0
:1023800048E5588668A7784008611802282338CCA9
:10239000C9EDD98EE9AFF9488969990AA92BB9F530
:1023A0005AD44AB77A966A711A500A333A122AFDF9
:1023B000DBDCCBBFFB9EEB799B588B3BBB1AABA600
:1023C0006C877CE44CC55C222C033C600C411CAE49
:1023D000ED8FFDECCDCDDD2AAD0BBD688D499D9710
:1023E0007EB66ED55EF44E133E322E511E700E9F99
:1023F000FFBEEFDDDFFCCF1BBF3AAF599F788F8860
:1024000091A981CAB1EBA10CD12DC14EF16FE18030
:1024100010A100C230E3200450254046706760B927
:10242000839893FBA3DAB33DC31CD37FE35EF3B180
:10243000029012F322D2323542145277625672EA77
:10244000B5CBA5A89589856EF54FE52CD50DC5E2D0
:1024500034C324A01481046674476424540544DB07
:10246000A7FAB79987B8975FE77EF71DC73CD7D320
:1024700026F2369106B01657667676154634564CD7
:10248000D96DC90EF92FE9C899E9898AB9ABA94470
:1024900058654806782768C018E1088238A3287D67
:1024A000CB5CDB3FEB1EFBF98BD89BBBAB9ABB75C0
:1024B0004A545A376A167AF10AD01AB32A923A2E37
:1024C000FD0FED6CDD4DCDAABD8BADE89DC98D2610
:1024D0007C076C645C454CA23C832CE01CC10C1F47
:1024E000EF3EFF5DCF7CDF9BAFBABFD98FF89F1760
:1024F0006E367E554E745E932EB23ED10EF01E5651
:1025000054726176204D696E00566D696E00566D8D
:102510006178204500566D6178205A00566D6178CB
:10252000205900566D6178205800416D6178204532
:1025300000416D6178205A00416D61782059004159
:102540006D6178205800412D54726176656C0041B0
:102550002D5265747261637400416363656C00455C
:102560002073746570732F6D6D005A2053746570FD
:10257000732F6D6D00592053746570732F6D6D004E
:10258000582053746570732F6D6D004C6F6164201B
:1025900053657474696E67730053746F726520536A
:1025A000657474696E677300416476616E63656417
:1025B0002053657474696E677300436F6E66696754
:1025C00075726174696F6E00526573746F72652005
:1025D00044656661756C74730050726568656174FA
:1025E000202420436F6E660053746F70004368614F
:1025F0006E6765204D65646961004D32310052653A
:1026000073756D65205072696E74004E6F204D6554
:102610006469610054756E650053746F7020507268
:10262000696E74005061757365205072696E740034
:10263000496E666F2053637265656E00656E7175D5
:10264000657565696E672022006F6B005265736562
:102650006E643A200020573A004520255300236439
:102660006566696E652044454641554C545F004B94
:102670006420004B6920004B7020005049442041E9
:1026800075746F74756E652066696E6973686564CC
:10269000212050757420746865206C617374204B20
:1026A000702C204B6920616E64204B6420636F6E38
:1026B0007374616E74732066726F6D2062656C6FE7
:1026C0007720696E746F20436F6E666967757261FB
:1026D00074696F6E2E680A00504944204175746F0A
:1026E00074756E65206661696C6564212074696D1E
:1026F000656F75740A000A20436C61737369632007
:10270000504944200A00204B643A2000204B693A8B
:102710002000204B703A20002054753A2000204BB6
:10272000753A2000206D61783A2000206D696E3A7C
:10273000200020643A200020626961733A20005032
:102740004944204175746F74756E652073746172AD
:10275000740A00504944204175746F74756E652089
:102760006661696C6564212054656D706572617481
:1027700075726520746F6F20686967680A00504938
:1027800044204175746F74756E6500504944204152
:1027900075746F74756E65206661696C656421205F
:1027A000426164206578747275646572206E756D1F
:1027B0006265720A00477269642070726F62696EA6
:1027C0006720646F6E652E0A0069646C650A0020DC
:1027D0006F662000706F696E7420004D616E7561C8
:1027E0006C2047323920004D616E75616C20473294
:1027F000392061626F727465640A0020284452595E
:1028000052554E2900473239204175746F20426578
:1028100064204C6576656C696E67003F20284C2CFF
:10282000522C462C4229206F7574206F6620626FEF
:10283000756E64732E0A003F2856296572626F73A5
:1028400065206C6576656C20696D706C6175736967
:10285000626C652028302D34292E0A0042616420E4
:102860005A2076616C75650A004E6F2062696C694A
:102870006E65617220677269640A00204D393220EA
:10288000580020496E76616C6964206578747275B1
:1028900064657220004572723A207574663820664D
:1028A0006F6E74206E6F7420696E697469616C69F3
:1028B0007A65642E00000C0F00FE07022503BB01A1
:1028C0007FFE08FE08FE05080806000040F0C888E4
:1028D00088987810050808060000C0F8888888885D
:1028E00088F80505050600012030F83020050808A5
:1028F0000600002070F820202020E00509090600CD
:10290000FF2070A8A8B88888702007050507000177
:10291000D86C366CD80509090600FFF8A8888888A5
:102920008888A8F8050A0A0600FE205050505088F2
:10293000A8A8887003030306000340A040FFFFFF20
:10294000FFFFFFFFFFFFFFFFFFFFFFFFFFFFFFFF97
:10295000FFFFFF0000000605FF01070706020080D9
:10296000808080800080030303060105A0A0A005ED
:10297000060606000050F85050F8500509090600F8
:10298000FF2070A8A07028A8702005070706000087
:10299000C8C8102040989805070706000040A0A06E
:1029A00040A890680103030602058080800309099E
:1029B0000601FF2040408080804040200309090636
:1029C00001FF80404020202040408005070706008E
:1029D0000020A8702070A820050505060001202011
:1029E000F820200203030601FFC040800501010614
:1029F0000003F8020202060100C0C0050707060036
:102A0000000810102040408005070706000070886D
:102A100098A8C8887003070706010040C0404040DE
:102A200040E0050707060000708808102040F80500
:102A30000707060000F80810300888700507070629
:102A4000000010305090F81010050707060000F83D
:102A500080F008088870050707060000304080F005
:102A6000888870050707060000F80810102020204D
:102A700005070706000070888870888870050707BA
:102A800006000070888878081060020505060100BD
:102A9000C0C000C0C00206060601FFC0C000C040A2
:102AA0008003050506010120408040200503030640
:102AB0000002F800F803050506010180402040806F
:102AC0000507070600007088102020002005070772
:102AD0000600007088B8A8B88070050707060000D7
:102AE000708888F8888888050707060000F048483D
:102AF000704848F0050707060000708880808088CD
:102B000070050707060000F04848484848F00507E8
:102B100007060000F88080F08080F80507070600AF
:102B200000F88080F080808005070706000070882C
:102B30008080988870050707060000888888F888D4
:102B40008888030707060100E04040404040E00558
:102B500007070600003810101010906005070706E0
:102B600000008890A0C0A09088050707060000809C
:102B70008080808080F805070706000088D8A88834
:102B80008888880507070600008888C8A89888886C
:102B90000507070600007088888888887005070781
:102BA000060000F08888F080808005070706000096
:102BB00070888888A89068050707060000F0888854
:102BC000F0A09088050707060000708880700888CC
:102BD00070050707060000F82020202020200507A8
:102BE000070600008888888888887005070706001F
:102BF00000888888885050200507070600008888CC
:102C00008888A8A85005070706000088885020502B
:102C100088880507070600008888502020202005A6
:102C20000707060000F80810204080F8030909068D
:102C300001FFE080808080808080E005070706003B
:102C400000804040201010080309090601FFE02021
:102C5000202020202020E0050303060005205088C6
:102C60000501010600FEF80303030601058040206C
:102C70000505050600007008788878050707060036
:102C8000008080F0888888F00505050600007080C7
:102C9000808870050707060000080878888888780B
:102CA0000505050600007088F0807005070706001E
:102CB00000304840E04040400507070600FE7088AD
:102CC00088887808700507070600008080F08888EB
:102CD00088880307070601004000C0404040E00428
:102CE00009090601FE100030101010109060050751
:102CF0000706000080808890E0908803070706019F
:102D000000C04040404040E0050505060000D0A856
:102D1000A8A8A8050505060000B0C888888805058C
:102D20000506000070888888700507070600FEF019
:102D3000888888F080800507070600FE78888888E4
:102D4000780808050505060000B0C88080800505E4
:102D50000506000078807008F005070706000020CF
:102D600020F820202018050505060000888888988E
:102D700068050505060000888888502005050506B9
:102D800000008888A8A85005050506000088502086
:102D900050880507070600FE888888502040800577
:102DA0000505060000F8102040F80309090601FF98
:102DB0002040404080404040200109090602FF8039
:102DC00080808080808080800309090601FF804028
:102DD0004040204040408005030306000248A89080
:102DE000FF506C65617365205265736574005052C5
:102DF000494E5445522048414C5445440025533ACD
:102E0000202553004B494C4C45442E2000507269FC
:102E10006E7465722068616C7465642E206B696CD9
:102E20006C28292063616C6C6564210A0065636805
:102E30006F3A004572726F723A0042696C696E6552
:102E40006172204C6576656C696E672047726964B3
:102E50003A0A002062797465733B20637263200034
:102E60004E6F20454550524F4D2E0A004545505259
:102E70004F4D206461746173697A65206572726F69
:102E8000722E0A002073746F726564207365747407
:102E9000696E67732072657472696576656420284F
:102EA00000202863616C63756C6174656429210A74
:102EB0000020213D2000454550524F4D20435243B4
:102EC000206D69736D61746368202D202873746FA1
:102ED000726564292000496E6465783A200044498F
:102EE0004749504F5453204C6F616465640A004455
:102EF000494749504F5453204C6F6164696E670ACB
:102F000000204D61726C696E3D563832290A0045C9
:102F10004550524F4D2076657273696F6E206D6912
:102F2000736D617463682028454550524F4D3D00D4
:102F3000454550524F4D20496E697469616C697AFC
:102F400065640A0048617264636F64656420446567
:102F50006661756C742053657474696E6773204C78
:102F60006F616465640A003B200000004843000074
:102F700048430000C04000008C420000A042000016
:102F8000A0420000C8430000C042F4010000F40168
:102F90000000640000009001000020436F756E7413
:102FA00020583A00453100626564002C2073797323
:102FB00074656D2073746F7070656421204865615D
:102FC0007465725F49443A200048656174696E67B0
:102FD000204661696C65640048656174696E6720AC
:102FE0006661696C656400202D20496E76616C69AC
:102FF00064206578747275646572206E756D6265A3
:103000007220210A00544845524D414C2052554EE1
:103010004157415900546865726D616C2052756E5C
:1030200061776179005072696E742066726F6D20ED
:103030004D6564696100486F6D65202573257325B2
:103040007320466972737400220A00556E6B6E6FAE
:10305000776E20636F6D6D616E643A202200334499
:10306000205072696E7465722052656164792E0019
:103070005072696E74696E672E2E2E005072696EE2
:1030800074205061757365640020453A00205A3AF7
:103090000020593A0043616E6E6F74206F70656E48
:1030A0002073756264697220004D6F7665205A0046
:1030B0004D6F76652025736D6D004D6F7665203000
:1030C0002E316D6D004D6F766520316D6D004D6F49
:1030D00076652031306D6D004D6F766520417869E1
:1030E00073004578747275646572004D6F76652063
:1030F00059004D6F766520580000000A0B02090C3C
:103100000D0E08070304010000000000000000008D
:1031100000000000000000000000000000000000AF
:10312000000000000012111000000000000000006C
:10313000000000000000000000000000000000434C
:1031400061703A0047322F4733206261642070611A
:1031500072616D65746572730A00E7F934F81124C1
:103160001FBECFEFD1E2DEBFCDBF00E00CBF13E04A
:10317000A0E0B2E0E0EFF7E102E00BBF02C0079091
:103180000D92A030B107D9F724E1A0E0B3E001C06F
:103190001D92AA34B207E1F718E1CEEAD8E100E0C7
:1031A00006C021970109802FFE010F943408CD3A03
:1031B000D10780E00807A9F70E94B0F10D94E60B53
:1031C0000C9400002F923F924F925F926F927F92E9
:1031D0008F929F92AF92BF92CF92DF92EF92FF9227
:1031E0000F931F93CF93DF93CDB7DEB7CB54D109A5
:1031F0000FB6F894DEBF0FBECDBF2C968FAF2C97C5
:1032000020910A032A962FAF2A9721E020930A03E0
:10321000809183128D3409F4B9C2843511F40C9471
:10322000DB29873411F00C94FE2920918112309112
:1032300082122B31310509F488C090F42430310515
:1032400030F48091B40A2230310558F134C0243072
:103250003105E9F12531310511F40C94002A92C2AF
:103260002A32310509F4A5C160F42C31310509F485
:103270000DC12D31310509F085C20E94C9B70C94EA
:10328000002A2B35310509F411C12C35310509F41B
:1032900012C12A35310509F075C2109209030C9448
:1032A000002A813011F00C94002A0E94C0B50E94BF
:1032B0009E800C94002A813011F00C94002A223058
:1032C000310509F080E00E94D6E80C94002A80E5E0
:1032D0000E94E0C2882329F00E94BFB66B017C01E6
:1032E00003C0C12CD12C760183E50E94E0C2882363
:1032F00061F00E945BC220E030E04AE754E40F94A2
:10330000A7010F94CA096B017C010E945E7B80912A
:10331000710B811105C060E08FEB95E00E9436745F
:103320000E9475E6C60ED71EE81EF91E0E9475E6BD
:10333000DC01CB018C199D09AE09BF09B7FD02C0A4
:103340000C94002A0E94BF30F1CF0E947DDC8111D5
:103350000C94002A8CE0E7E7F2E0DE011196019080
:103360000D928A95E1F760E070E080E50E9471B609
:1033700040E050E068EC72E44CA35DA36EA37FA331
:1033800040E050E060EA70E448A359A36AA37BA33D
:10339000813019F0823039F029C0BE01605E7F4F64
:1033A000CE01099658C029853A854B855C85609188
:1033B000C50C7091C60C8091C70C9091C80C0F94ED
:1033C00057086B017C0120E030E048EC53E40F9497
:1033D000410187FD06C0C12CD12C58ECE52E53E4E9
:1033E000F52ECC8EDD8EEE8EFF8E30C020E030E0EC
:1033F00040E050E46091C50C7091C60C8091C70C00
:103400009091C80C0F9457087B018C0120E030E0AC
:1034100048EC53E40F94B70A181624F4E12CF12C6D
:1034200008EC13E4A984BA84CB84DC849701A80156
:10343000B501C6010F94B70A181614F47501860178
:10344000C701D8018C8F9D8FAE8FBF8FBE01605E8C
:103450007F4FCE014C960E947084E090C50CF09096
:10346000C60C0091C70C1091C80C2D813E814F8174
:10347000588569817A818B819C81DE0194966D01EA
:103480000E94AF830E9491840C94002A8091E713DC
:103490008770873011F00C940D2A60E08FE40E9451
:1034A000A1B781110C94002A0C940D2A8FE080930F
:1034B00009030C94002A93E8292E92E0392E26EF76
:1034C000E22E2BE0F22EEDEBFCE0F9A7E8A734E1C9
:1034D000C32E34E1D32E00E010E0D1018D911D0107
:1034E0000E94E0C2882309F44BC00E945BC22B01FA
:1034F0003C01133049F0F601208131814281538132
:103500000F9456082B013C01A8A5B9A52D913D911A
:103510004D915C91C301B2010F9456084B015C01BF
:103520002DEB37E346E855EB0F94B70A87FD0AC049
:103530002DEB37E346E855E3C501B4010F94410193
:103540001816F4F4133051F44092C90C5092CA0C7E
:103550006092CB0C7092CC0C01E012C0A5019401DA
:10356000F70160817181828193810F945708D7019F
:103570006D937D938D939C931397812F0E94DD7F94
:103580001F5FB4E0EB0EF11CE8A5F9A53496F9A78E
:10359000E8A7F4E0CF0ED11C143009F09ECF002331
:1035A00021F089EC9CE00E943C7E0E9491840C9466
:1035B000002A8091B40A813011F00C94002A89E429
:1035C0000E94E0C2E82E882321F00E94B6B7082F9F
:1035D00001C000E08AE40E94E0C2F82E882321F0B6
:1035E0000E94B6B7182F01C010E0EE2011F0033092
:1035F00020F4FF2041F0133030F088EC95E00E9479
:1036000075C80C94002A80E1EDEBFCE0A2E0BCE080
:1036100001900D928A95E1F7EE2019F1602F000FCD
:10362000770B880B990B0F9448012091310C309146
:10363000320C4091330C5091340C0F94A70120911F
:10364000791330917A1340917B1350917C130F942E
:1036500057086093020C7093030C8093040C9093B2
:10366000050CFF2019F1612F110F770B880B990BB7
:103670000F9448012091350C3091360C4091370C55
:103680005091380C0F94A70120917D1330917E1337
:1036900040917F13509180130F9457086093060C4C
:1036A0007093070C8093080C9093090C40E050E055
:1036B000BA0186E40E9437AD6B017C0120E030E066
:1036C000A9010F94B70A18165CF420E030E040E737
:1036D00052E4C701B6010F9451096B017C0103C08C
:1036E000C12CD12C760180904D0290904E02A0907A
:1036F0004F02B090500220E030E0A901C701B601AE
:103700000F944101882341F0C0924D02D0924E02A5
:10371000E0924F02F092500200914B0210914C0245
:1037200084E690E090934C0280934B02C090060296
:10373000D0900702E0900802F090090280E090E04B
:10374000A0E8BFE38093060290930702A0930802CB
:10375000B09309020E949E8080924D0290924E0288
:10376000A0924F02B092500210934C0200934B0271
:10377000C0920602D0920702E0920802F09209027B
:103780000C94002A0E946FDC0C94002A8091811214
:10379000909182128237910509F439C708F0AFC0C1
:1037A0008B34910509F4A5C408F045C08831910512
:1037B00009F4BBC228F58231910509F445C648F4E5
:1037C0008230910508F4F7C1419709F451C20C9475
:1037D000D8298531910509F490C228F4449709F459
:1037E0005BC20C94D8298631910509F48AC24797A7
:1037F00011F00C94D829E0917F12F091801289C2C7
:103800008C31910509F417C338F48A31910509F414
:10381000B1C208F496C2BCC28E31910509F41AC334
:1038200008F411C38F31910509F4B8C3809709F4E6
:1038300072C30C94D8298836910509F477C4A8F589
:103840008235910509F4F1C500F58D34910509F42F
:1038500069C408F452C48135910511F00C94D8293B
:103860000E940CD10E94B8850E946E7B0E94FF2EA0
:1038700068EE73E080E090E00E9451C860E088EE5E
:1038800096E00E9436740C94002A8435910509F460
:10389000DBC508F4D2C58535910509F40BC68C3516
:1038A000910509F42AC60C94D8298D36910509F49E
:1038B00064C4A8F48A36910509F479C408F461C493
:1038C0008B36910509F4B1C48C36910511F00C9436
:1038D000D82910929D0B10921C020C94002A8F364E
:1038E000910509F4C0C408F4ABC48037910509F40C
:1038F000FFC48137910509F408C50C94D8298D3D82
:10390000910511F40C94EB2508F0D5C08B39910585
:1039100009F463C508F0A4C08737910509F4C8C647
:1039200008F08EC08537910509F478C608F086C680
:103930008337910511F00C94D82983E498E00E9414
:1039400075C860E083E398E00E9429EE60E08EE1B4
:1039500098E00E9429EE61E088ED9CE00E9429EE4B
:1039600061E083E198E00E9429EE61E083E098E065
:103970000E9429EE60E08AEF97E00E9429EE61E064
:1039800080EF97E00E9429EE60E086EE97E00E94CB
:1039900029EE60E08FED97E00E9429EE60E087ED70
:1039A00097E00E9429EE61E089EC97E00E9429EE01
:1039B00060E08BEB97E00E9429EE60E08CEA97E0F4
:1039C0000E9429EE60E08EE997E00E9429EE60E017
:1039D00088E897E00E9429EE60E087E797E00E9480
:1039E00029EE60E088E697E00E9429EE61E081E63A
:1039F00097E00E9429EE60E08CE497E00E9429EEB7
:103A000060E08EE397E00E9429EE61E08BE297E0B0
:103A10000E9429EE60E08EE197E00E9429EE61E0CD
:103A200089E197E00E9429EE60E08CE097E00E9437
:103A300029EE60E088EF96E00E9429EE0C94002ABF
:103A40008937910509F43FC608F435C68C389105CD
:103A500009F480C48139910509F43CC60C94D82935
:103A60008C3C910509F433C7A8F4883C910509F40E
:103A7000A5C630F48E3B910509F48DC40C94D82969
:103A8000893C910509F4E1C68B3C910509F400C716
:103A90000C94D8298E3C910509F460C708F44BC7F3
:103AA000833D910509F4AAC78C3D910511F40C944E
:103AB000C4250C94D8298C3A31E0930711F40C9466
:103AC0002F2998F58F3251E0950711F40C941A279D
:103AD00080F48D32B1E09B0711F40C94562610F05F
:103AE0000C94D6268C32914011F40C9441260C94FF
:103AF000D8298A3921E0920709F403C448F48039AF
:103B0000914011F00C94D8290E945E7B0C94002AFD
:103B1000843A51E0950711F40C941D27853A9140A1
:103B200011F40C94B8280C94D829883FB1E09B0775
:103B300011F40C94932928F5853FF1E09F0711F4C7
:103B40000C948D2948F4843F914011F00C94D829AD
:103B50000E9473750C94002A863F41E0940711F48B
:103B60000C949029873F914011F00C94D82961E082
:103B700083E50E94A1B791E089270E94DC980C940C
:103B8000002A803AA3E09A0709F4FAC138F48C308D
:103B9000924011F40C94A3290C94D829873EF3E0A9
:103BA0009F0711F40C94B029893E934011F40C94B2
:103BB000BE290C94D82980E50E94E0C2882329F010
:103BC0000E94BFB66B017C0103C0C12CD12C7601D1
:103BD00083E50E94E0C2882361F00E945BC220E07E
:103BE00030E04AE754E40F94A7010F94CA096B012F
:103BF0007C010E945E7B80917F12909180120097E1
:103C000021F061E00E94927405C060E081EE95E0D1
:103C10000E94367410910A0383E080930A0381E0C6
:103C200080939D0BC114D104E104F10431F00E9492
:103C300075E6C60ED71EE81EF91E80919D0B8823DF
:103C400011F40C94C42AC114D104E104F10411F458
:103C50000C94C02A0E9475E6DC01CB018C199D09E9
:103C6000AE09BF09B7FF02C00C94C02A0C94C42A45
:103C700080917B1284FF02C00C94CB2A80917D122C
:103C800087FF02C00C94CB2A80917E12837011F0C2
:103C90000C94CB2A0C94E72A8091191183FF25C03C
:103CA0008CE096E00E9475C88091191183FF17C0BF
:103CB00082E59FE00E94828B8BE1E2E5FFE0DE017E
:103CC000119601900D928A95E1F760E070E0CE01C7
:103CD00001960E9451E4CE0101960E94878B8DEFE0
:103CE00095E00E9475C80C94002A0E9462C98DE17B
:103CF00096E00E9475C80C94002A0E94566C0C94A1
:103D0000002A0E94456C0C94002A803209F410822B
:103D1000319680818111F9CF60E080917F1290917E
:103D200080120E947A6A0C94002A0E94DF2E882357
:103D300021F00E94986B0E9494850E94E3DB0C9412
:103D4000002A8091191182FF03C08B7F8093191183
:103D500080911314813089F782E0809313140E94BC
:103D600075E66093F20B7093F30B8093F40B9093D2
:103D7000F50BE3CF8091191183FD02C00C94002A4A
:103D800083E50E94E0C281110C94F52A0C94002A6C
:103D900083E40E9492C2882319F181E396E00E9495
:103DA00075C88091FC0E882391F0BE016F5F7F4F34
:103DB00089EF9EE00E94498A8E010F5F1F4FD80154
:103DC0008D918D01882339F00E94932FF8CF87E2DF
:103DD00096E00E9475C88AE00E94932F0C94002AF6
:103DE0008091191182FF21C080E496E00E9475C87D
:103DF0006091151170911611809117119091181101
:103E00004AE00E949A2F8FE20E94932F6091111135
:103E10007091121180911311909114114AE00E9437
:103E20009A2F0E9498300C94002A82E596E00E9416
:103E300075C80C94002A80917F12909180120E9484
:103E4000326A0C94002A809119118E7F8093191187
:103E50000C94002A8091191183FD02C00C94002A51
:103E60000E9458DC8091191183FD02C00C94002A35
:103E700040917F1250918012BE01645E7F4F80E0BE
:103E80000E9405A08C01009711F40C94002A6C8DFF
:103E90007D8D19821C8222E0AC01CE0101960E9428
:103EA000628E811102C0F12C14C0CE0101960E94D5
:103EB000739F8823C1F361E0CE0101960E942D8A91
:103EC000009789F325EEFC0120831C820E94F0DF1D
:103ED000F82ECE0101960E94878BB801FF2089F051
:103EE0008BE796E00E944BC98AE00E94932F1092C4
:103EF00015111092161110921711109218110C949E
:103F0000002A83E696E00E944BC989E598E20E9468
:103F100075C80C94002A8091191182FD0E945E7B65
:103F20008091191183FD02C00C94002A60E080E5A5
:103F30000E94A1B7182F682F80917F129091801254
:103F40000E947A6A83E50E94E0C2882381F00E9481
:103F50004BC2AB01BC0140931511509316116093F5
:103F600017117093181189EF9EE00E9416E20E94CB
:103F7000986B11110C94002A0E9494850C94002ACD
:103F800020917F123091801290911911926090933C
:103F90001911C9010E94326A0C94002A0E944585B9
:103FA0007B018C0120E831E541E050E00F94970758
:103FB000C9016DE671E00F94ED074B015C01C8018A
:103FC000B70120E13EE040E050E00F949707CA01BE
:103FD000B90128E130E040E050E00F949707762ED9
:103FE000672EC62ED72E8CE3282E312C412C512C37
:103FF000C801B701A20191010F949707F62EE72E91
:10400000CA01B901A20191010F949707CB018E015A
:104010000F5F1F4F8114910499F0EF92FF927F93ED
:104020006F936F927F92BF92AF929F928F9289E827
:1040300096E09F938F931F930F930F94D90013C013
:10404000A114B104B1F0EF92FF927F936F936F923E
:104050007F92BF92AF928DE896E09F938F931F93CC
:104060000F930F94D9000FB6F894DEBF0FBECDBFEB
:1040700030C0CD2879F0EF92FF927F936F936F92CB
:104080007F9281E996E09F938F931F930F930F94F4
:10409000D900E9CF892B69F0EF92FF927F936F935C
:1040A00085E996E09F938F931F930F930F94D90008
:1040B000DACFEF92FF9289E996E09F938F931F9357
:1040C0000F930F94D9000F900F900F900F900F90B7
:1040D0000F9060E0C8010E9492740E9462C9B8010A
:1040E0008DE996E00E944BC98AE00E94932F0C94C0
:1040F000002A0E9494850C94002A80911314813028
:1041000011F00C94002A82E0809313140E9475E64B
:104110006093F20B7093F30B8093F40B9093F50B79
:104120000C94002A0E94B8850C94002A809189087A
:1041300083FF02C00C94002A0E945DB787FF02C073
:104140000C94002A89E40E94E0C2882311F40C94A4
:10415000062B0E9449B790E01816190614F481E066
:1041600090E026E0289FF001299FF00D1124E75CE4
:10417000F34F808191810C94102B0E9441B10C94DB
:10418000002A0E945DB7182F87FD0AC089E496E2D5
:104190000E9475C8812F0E940C908AE00E94932F84
:1041A0002A96BFAD2A97B0930A030C94142E60E0B0
:1041B00080E50E9485B781110C94002A81E40E9459
:1041C00092C2882329F06091C503062F10E002C037
:1041D0000FEF10E089E40E94E0C2882399F00E946A
:1041E00049B790E01816190614F481E090E026E033
:1041F000289FF001299FF00D1124E75CF34F048103
:10420000158108C083E50E94E0C2882319F00E944E
:104210004BC28B01B8010F3F110519F010F06FEF81
:1042200070E06093C5030C94002A60E080E50E9472
:1042300085B781110C94002A1092C5030C94002AB2
:104240008EE40E94E0C2882311F40C94002A0E949C
:104250004BC2609308137093091380930A139093D1
:104260000B130C94002A83E50E9492C2882331F03C
:1042700060E083E50E9485B7809389080E9462C947
:104280008EEA96E00E9475C880918908882369F1BA
:104290001AEBE12E1AE0F12E00E010E020E0809110
:1042A000890890E0A0E0B0E0002E04C0B695A79584
:1042B000979587950A94D2F780FF0EC0DD24D3949A
:1042C000D20E222319F08CE20E94932FF7018591E0
:1042D00094910E9475C82D2D0F5F1F4FE2E0EE0EE6
:1042E000F11C05301105D9F676CD8AEA96E071CD3C
:1042F00041E060E070E085EB96E00E9466C90C94B6
:10430000002A0E94492E0C94002A83E50E94E0C2F4
:10431000882381F00E9449B7282F30E02D333105E2
:1043200024F4809300020C94002A8CE38093000212
:104330000C94002A0E9462C94091000250E060E0A3
:1043400070E083EC96E00E940FC98AE00E94932FF0
:104350000C94002A8091890883FF02C00C94002AE3
:1043600089E40E94E0C2882311F40C94192B0E9466
:1043700049B790E01816190614F481E090E026E0A1
:10438000289FF001299FF00D1124E75CF34F628113
:1043900073810C94232B8091890883FF02C00C94B5
:1043A000002A89E40E94E0C2882311F40C94362B81
:1043B0000E9449B790E01816190614F481E090E0C5
:1043C00026E0289FF001299FF00D1124E75CF34FB0
:1043D0006281738118A60C94462B83E50E94E0C28B
:1043E000882311F40C94002A0E9449B7182F90E0FA
:1043F000CD970CF01CE3109304030E9475E66B014B
:104400007C01212F30E0A8EEB3E00F94C407C60E64
:10441000D71EE81EF91EC0920003D0920103E0925D
:104420000203F09203030C94002A809109038F7D0C
:104430008061809309030C94002A809109038F7E88
:10444000806280930903DCC783E50E94E0C2882371
:10445000E9F00E9475E660930C1370930D1380933E
:104460000E1390930F130E945BC220E030E04AE7E6
:1044700054E40F94A7010F94CA096093010270934A
:1044800002028093030290930402BAC780917B12C8
:1044900084FF02C00C94DF2C80917D1287FF02C044
:1044A0000C94DF2C80917E12837011F00C94DF2C21
:1044B0000C94102D83E50E9492C2882309F4A0C7B2
:1044C0000E9475E660930C1370930D1380930E1386
:1044D00090930F130E945BC220E030E04AE754E45F
:1044E0000F94A7010F94CA09609305037093060304
:1044F000809307039093080383C70E945DB787FDED
:104500007FC790917B1294FD04C090917D1297FF1C
:104510000AC073E8C72E72E0D72EEAE8EE2EE8E074
:10452000FE2E10E009C090917E12937091F7682FD3
:1045300081E00E9484B664C7D6018D916D010E940E
:10454000E0C2882309F459C0133009F04FC00E941B
:104550005BC24B015C0120E030E040EA51E40F9483
:10456000410187FF3AC0A50194016091AA087091AA
:10457000AB088091AC089091AD080F9451092B01C4
:104580003C019B01AC016091BA087091BB0880911D
:10459000BC089091BD080F94A7016093BA0870936E
:1045A000BB088093BC089093BD086091B9037091DB
:1045B000BA038091BB039091BC030F944601A30101
:1045C00092010F94A7010F94CA096093B9037093E5
:1045D000BA038093BB039093BC038092AA08909285
:1045E000AB08A092AC08B092AD0807C00E945BC2B5
:1045F000F701648B758B868B978B1F5FF4E0EF0E52
:10460000F11C143009F098CF0E94737AF9C60E9409
:104610007EDB88E99FE00E94C7D6F2C680917F12B8
:1046200090918012009709F488CBDC012C91222311
:1046300009F483CB60E00E949274E2C600917F127D
:104640001091801294E0F12C40E0915021F1F8019A
:104650008081282F2B7F213421F421812133D9F42B
:1046600007C08035C1F4818180538A3048F013C07F
:10467000813421F0853421F441E002C0FF24F39419
:1046800098012E5F3F4F89012F5F3F4FF8018081D6
:104690008032C9F3DACF41110E9462C9FF2021F0B4
:1046A0008EE199E00E9475C8C8010E949E30A8C69C
:1046B0000E941885A5C681E080931F0980931E097A
:1046C0000E943A859DC610921F0910921E090E94F1
:1046D0003A8596C660E070E083E50E94BAB7823002
:1046E00038F00E945EC982E299E00E9475C888C6CF
:1046F0008C01112788E40E94E0C28823E1F00E9427
:10470000B6B78A3A910544F00E94B6B78530914019
:1047100034F40E94B6B705C08AEA90E002C084E093
:1047200091E026E0209FF001219FF00D1124E75C2D
:10473000F34F9183808382E40E94E0C28823D9F002
:104740000E94B6B7059744F00E94B6B78D38910520
:1047500034F40E94B6B705C085E090E002C08CE852
:1047600090E026E0209FF001219FF00D1124E75CEE
:10477000F34F9383828386E40E94E0C2882309F486
:104780003FC60E94B6B797FD09C00E94B6B78F3FDB
:10479000910509F034F40E94B6B705C080E090E0BE
:1047A00002C08FEF90E026E0209FF001219FF00DE6
:1047B0001124E75CF34F9583848322C60E945DB782
:1047C000182F87FD1DC60091720C84E40E94E0C280
:1047D000882311F40C94132D0E945BC26B017C01A1
:1047E00020E030E0A9010F944101882341F124E049
:1047F0001202F0011124E259F34FC082D182E28209
:10480000F38220E030E0A90160916E0C70916F0C92
:104810008091700C9091710C0F94410181110CC02A
:1048200080E090E0A0EEBFE380936E0C90936F0C5D
:10483000A093700CB093710C01E00C94132D80E0E8
:104840008093720C0E940E75DBC50E945DB787FDD8
:10485000D7C563E8E62E62E0F62E0AE818E0D70135
:104860008D917D010E9492C2882359F00E945BC203
:104870000F94CA09F80160837183828393830E9435
:104880002C7A0C5F1F4FF8E00A391F0741F7B8C5B3
:104890000E945DB787FDB4C553E8E52E52E0F52EC2
:1048A0000AE818E0D7018D917D010E9492C2882309
:1048B00039F00E945BC2F80164A375A386A397A395
:1048C0000C5F1F4FF8E00A391F0761F799C5809107
:1048D0007C1287FF02C00C94192D80917D128E707E
:1048E00011F00C94192D4091BE085091BF086091B1
:1048F000C0087091C10884E499E00E942DC94091DC
:10490000C2085091C3086091C4087091C50885E23F
:1049100098E10E942DC94091C6085091C708609146
:10492000C8087091C90886E099E10E942DC98AE003
:104930000E94932F65C580917B1281FF02C00C9469
:104940005F2D80917C1281FF02C00C945F2D8091BD
:104950007D128C7011F00C945F2D52C542E2E42E52
:1049600049E0F42E10E088E5810F0E9492C288236E
:1049700059F00E945BC2D7016D937D938D939C93F8
:104980001397812F0E94DD7F1F5FB4E0EB0EF11CB7
:10499000133049F780917D1287FF02C00C94D51A1D
:1049A00080917E12837011F00C94D51A40912209E7
:1049B00050912309609124097091250982E998E1B9
:1049C0000E942DC94091260950912709609128091C
:1049D000709129098FEE90E30E942DC940912A0918
:1049E00050912B0960912C0970912D098DEA90E36B
:1049F0000E942DC98AE00E94932F02C54090141492
:104A000050901514609016147090171420912F0276
:104A1000309130024091310250913202C301B20113
:104A20000F94570868A779A78AA79BA780901814A6
:104A300090901914A0901A14B0901B142091330276
:104A4000309134024091350250913602C501B401D3
:104A50000F9457086CA77DA78EA79FA7C0901C1422
:104A6000D0901D14E0901E14F0901F142091370276
:104A7000309138024091390250913A02C701B60193
:104A80000F94570868AB79AB8AAB9BAB20913B0284
:104A900030913C0240913D0250913E02C301B2016F
:104AA0000F9457082B013C0120913F0230914002A6
:104AB0004091410250914202C501B4010F94570840
:104AC0004B015C0120914302309144024091450228
:104AD00050914602C701B6010F9457086B017C0143
:104AE0000E9462C983E899E00E9475C883E50E942C
:104AF00092C2882321F00E9491B780932D02809169
:104B00002D02882319F084EA95E002C08FE398E033
:104B10000E9475C88BE799E00E9475C848A559A501
:104B20006AA57BA581E699E10E942DC94CA55DA5EA
:104B30006EA57FA58FEE90E30E942DC948A959A9C3
:104B40006AA97BA98DEA90E30E942DC986E59FE0C2
:104B50000E9475C883E799E00E9475C8B301A2015D
:104B600081E699E10E942DC9B501A4018FEE90E381
:104B70000E942DC9B701A6018DEA90E30E942DC9BC
:104B80008AE00E94932F3CC483E50E94E0C2882300
:104B900031F00E94B6B790934C0280934B02809103
:104BA0007B1290917C12A0917D12B0917E12892B84
:104BB0008A2B8B2B09F024C460914B0270914C021C
:104BC00083E999E00E943EC985E20E94932F8AE022
:104BD0000E94932F15C40E945DB7F82E87FD10C464
:104BE00083E50E94E0C20F2D0F2C000C110B8823CF
:104BF00069F10E94B6B7F801EE0FFF1FE15EFD4FAD
:104C000091838083000F111F000F111FF801EA5FCD
:104C1000FD4F7F01BC01990F880B990B0F94480140
:104C20002AE037ED43E25CE30F94A701F801E65276
:104C3000F44F20813181428153810F94A701D70124
:104C40006D937D938D939C931397DAC30E9462C9F1
:104C500085E40E94932F80E38F0D0E94932F000F15
:104C6000111FF801E15EFD4F6081718187E999E0D4
:104C70000E943EC985E20E94932F8AE00E94932FF2
:104C8000BFC364E071E083E50E9471B68C0168EEF9
:104C900073E080E50E9471B68938B3E19B0710F09C
:104CA00088E893E1B8010E94D444AAC360E085E497
:104CB0000E9485B7811173C080E50E9492C288234B
:104CC00051F00E945BC26093E20C7093E30C8093FE
:104CD000E40C9093E50C89E40E9492C2882381F051
:104CE0000E945BC22CEA35EC47E25EE30F94A70119
:104CF0006093E60C7093E70C8093E80C9093E90CBA
:104D000084E40E9492C2882381F00E945BC22CEA54
:104D100035EC47E25EE30F9451096093EA0C70931F
:104D2000EB0C8093EC0C9093ED0C0E9462C94091C7
:104D3000E20C5091E30C6091E40C7091E50C87EA71
:104D400099E00E942DC92CEA35EC47E25EE36091C0
:104D5000E60C7091E70C8091E80C9091E90C0F94AF
:104D60005109AB01BC0183EA99E00E942DC92CEAEC
:104D700035EC47E25EE36091EA0C7091EB0C8091B8
:104D8000EC0C9091ED0C0F94A701AB01BC018FE9E5
:104D900099E00E942DC98AE00E94932F31C30E949E
:104DA0005EC98BEA99E00E9475C82AC383E50E9418
:104DB00092C2182F882371F00E945BC20F94C3091E
:104DC00070930B0260930A0221E0672B09F020E048
:104DD0002093D60380E50E9492C2882359F0209147
:104DE0000A0230910B02232B11F00E9491B780939D
:104DF000D60306C3111104C30E9462C986ED99E06F
:104E00000E9475C88091D603882319F089E396E241
:104E100002C08DEB99E00E9475C860910A02709102
:104E20000B0285EC99E00E943EC981EC99E00E945A
:104E300075C8E6C20E944EADE3C283E50E9492C2ED
:104E4000182F882321F00E9491B7982E02C09090CD
:104E50006D0C2091BD0C3091BE0C4091BF0C509157
:104E6000C00C21962CAF3DAF4EAF5FAF2197409065
:104E7000C10C5090C20C6090C30C7090C40C809117
:104E8000C50C9091C60CA091C70CB091C80C25968A
:104E90008CAF9DAFAEAFBFAF2597112329F0911016
:104EA00003C080E00E9406C586E50E9492C28CAFD6
:104EB00020E030E0A9016091310C7091320C8091BA
:104EC000330C9091340C0F944101882309F4AAC04B
:104ED00083E40E9492C2882309F4B0C00E945BC29E
:104EE00029966CAF7DAF8EAF9FAF2997A5E4BCE04C
:104EF000B9ABA8ABB9A7A8A7F3E0FCA7312C212C2C
:104F000028EC2FAB32EC38AF1CAA812C48EC4DAB0F
:104F100052E45EABE12CF12CE8A5F9A5EE0DFF1DE6
:104F200010810181B280A380212F302F4B2D5A2D6B
:104F30006CA9782D8DA99EA90F94B70A181624F490
:104F40001CAB802EBDAAAEAA232D322D4FA958AD81
:104F5000612F702F8B2D9A2D0F94B70A18161CF401
:104F60001801BFAAA8AE84E0E80EF11C9CE0E91687
:104F7000F10491F6ACA5A150ACA7E8A5F9A53C9623
:104F8000F9A7E8A7A111C6CF232D322D4FA958ADFF
:104F90006CA9782D8DA99EA90F94570820E030E0C8
:104FA00040E05FE30F94A70129962CAD3DAD4EADD7
:104FB0005FAD29970F9457086B017C012DEB37E308
:104FC00046E855EB0F94B70A87FD0AC02DEB37E38F
:104FD00046E855E3C701B6010F944101181674F570
:104FE00080E00E9406C513E0A8A8B9A803E0A701C5
:104FF0009601D5016D917D918D919C910F945608EC
:10500000F50161937193819391935F01015079F759
:10501000115028A939A9245F3F4F39AB28AB111192
:10502000E3CF0CC0911003C03CAD3323D1F00E94FC
:1050300062C988E29AE00E9475C820C04CAD442342
:1050400081F020E030E0A9016091310C7091320CC8
:105050008091330C9091340C0F94410181110E9486
:1050600084C88AE50E9492C2882329F00E945BC20C
:1050700040E00E9476C5892D0E9406C5992051F016
:1050800080916D0C811106C00E945EC989E09AE092
:105090000E9475C80E9462C98BEF99E00E9475C892
:1050A00080916D0C882319F084EA95E002C08FE3AB
:1050B00098E00E9475C88AE00E94932F0E9462C9FE
:1050C0008EEE99E00E9475C8C090690CD0906A0C71
:1050D000E0906B0CF0906C0C20E030E0A901C7016F
:1050E000B6010F94B70A181644F442E0C701B6019E
:1050F0000E9423300E94983004C089EE99E00E94FB
:1051000075C82091BD0C3091BE0C4091BF0C5091E0
:10511000C00C21966CAD7DAD8EAD9FAD21970F94E7
:10512000410181110C94D51A2091C10C3091C20C0F
:105130004091C30C5091C40CC301B2010F944101C2
:1051400081110C94D51A2091C50C3091C60C409158
:10515000C70C5091C80C25966CAD7DAD8EAD9FAD42
:1051600025970F944101882309F44AC10C94D51A5C
:105170006FEF7FEF89E40E94BAB7082F6FEF7FEFE0
:105180008AE40E94BAB7182F8AE50E94E0C2811112
:1051900008C081E50E94E0C2B82E882309F4E8C463
:1051A00001C0B12CA02E81E0800F843008F050C0E7
:1051B000912E81E0810F843008F04AC00E945BC2CA
:1051C0002B013C01F02E07FDF12C07FF02C0A2E0ED
:1051D000AA2E812E17FD812C17FF02C0F2E09F2E10
:1051E000AF1408F40DC1E82C8F2D90E06C01CC0CAD
:1051F000DD1CC80ED91E9E1448F10E2D10E0BB20F8
:1052000071F0F601E00FF11FEE0FFF1FEE0FFF1F11
:10521000EB5BF34F208131814281538103C020E059
:1052200030E0A9010C0D1D1D000F111F000F111FF3
:105230000B5B134FC301B2010F945708D8016D9354
:105240007D938D939C931397E394D5CFF394C8CF1C
:105250000E945EC988EC95E00E9475C8D1C00E948A
:105260007DDC8111CDC008E016E1EDEBFCE0F9A793
:10527000E8A79E012F5F3F4F190198ECC92E96E1D8
:10528000D92E7901F8016591759185919491A8A520
:10529000B9A58D909D90AD90BD90B9A7A8A7A50187
:1052A00094010F9456082B013C01F7016083718330
:1052B0008283938320E030E040EA51EC0F94B70AF8
:1052C00087FD0AC020E030E040EA51E4C301B201AA
:1052D0000F94410118162CF4F601849118160CF461
:1052E0004EC4D7018D909D90AD90BD907D0120E082
:1052F00030E040EA51ECC501B4010F94B70A87FDD4
:1053000049C420E030E040EA51E4C501B4010F9403
:10531000410118160CF052C43DC40E946DD070C0FB
:105320000E940ECA6DC0209382130E940DCB109272
:105330008213882309F464C00E9462C983E99AE059
:105340000E9475C85DC08091191182FF04C08064FD
:105350008093191155C083FF53C00E9458DC50C080
:1053600081E08093B40A10929C0B60E083E50E9478
:10537000A1B7811145C00E9494B342C00E944585E7
:105380006D3371058105910520F086EB9AE00E944E
:1053900043EE82EB9AE00E9443EE8EE99AE00E948F
:1053A00075C88AEC9EE09093300980932F0928C03D
:1053B0000E946FDC25C000918112109182120E9420
:1053C00075E660930C1370930D1380930E139093F6
:1053D0000F130023A9F00E9462C984E50E94932F55
:1053E000B801772780E090E00E94073080E20E94B9
:1053F000932F8BEA99E00E9475C802C00E946FDC6F
:105400002C96FFAD2C97F11102C00E9484B32A960E
:105410002FAD2A9720930A0307C40E945E7B109247
:105420002E021092E50880E00E9406C50E9475E6F3
:1054300060930C1370930D1380930E1390930F13BE
:105440000E94758381E080931F090E943A858AE556
:105450000E9492C2F82E88E50E9492C2182F89E518
:105460000E9492C218138AC0F11611F0012F04C0D5
:1054700001E011E0FF24F39482E50E94E0C288235A
:1054800069F00E945BC24B015C0120E030E0A901A1
:105490000F944101882309F454C006C0812C912C3B
:1054A00040EAA42E40E4B42E111103C0002309F4F5
:1054B00052C020E030E0A901C501B4010F945708A3
:1054C000762E872E982EA92EB090C50CC090C60CB3
:1054D000D090C70CE090C80C2B2D3C2D4D2D5E2D8F
:1054E0000F94410187FD03C0B72C6401EA2C80E0D2
:1054F00090E0A0E8B0E48C8F9D8FAE8FBF8F20E04E
:1055000030E048EC53E46B2D7C2D8D2D9E2D0F94B7
:10551000410187FF03C09D2D8E2D04C0B12CC12CED
:1055200098EC83E44B2D5C2D692F782F49835A83A7
:105530006B837C83BE01645E7F4FCE0101960E9427
:105540007084112319F080E00E9416F9002319F0ED
:1055500081E00E9416F9FF2019F082E00E9416F9FE
:105560000E948F8480911E0980931F090E945C8392
:1055700083E0809374020E94918442CF082F7CCFF5
:105580000E94BF300C941D1E10929D0B10930A03B5
:105590000E94E3DB35CF88E50E9492C281115F98BB
:1055A00089E50E9492C281118A988AE50E9492C27E
:1055B000882329F08091080181708093060185E499
:1055C0000E9492C2882309F41BCF129819CF60E081
:1055D00084EF95E00E9436745F988A988091080164
:1055E00081708093060112980BCF0E944BC2AB01D1
:1055F000BC014093151150931611609317117093CD
:10560000181189EF9EE00E9416E2FACE83E50E940F
:10561000E0C2882359F00E945BC20F94C309CB01FA
:105620000E94FC8F61E080E00E94F3D00E94ED793F
:10563000E7CE83E50E94E0C2882309F4E1CE0E9410
:105640005BC20F94C3096C3871056CF4962F872FD9
:1056500090932A0C80932B0C0E9483D061E080E011
:105660000E94F3D0CDCE9CE880E0F2CF83E50E948B
:10567000E0C288A7811106C082E50E94E0C28823AB
:1056800009F4BECE0E945BC20F94C3096C38710549
:105690000CF092C1962F872F90932A0C80932B0C9D
:1056A0000E9483D060E081E00E94F3D060912A0CD8
:1056B00070912B0C072E000C880B990B0F9448014E
:1056C0002091260C3091270C4091280C5091290CE8
:1056D0000F94B70A18161CF489ED96E002C08AEC04
:1056E00096E060E00E94367481E080931C0218AA64
:1056F00019AA1AAA1BAA18AE19AE1AAE1BAE1DAE75
:10570000FCE32296FFAF22972CE126962FAF269737
:1057100036E42B963FAF2B97C12CD12CA0E8EA2E74
:10572000BFEBFB2E1CA641E04CAF812C912C540109
:1057300060912A0C70912B0C072E000C880B990B92
:105740000F944801162F072F782E692E9601A70176
:105750000F944101882331F12091260C3091270CC0
:105760004091280C5091290C88A5612F702F811130
:1057700009C0872D962D0F944101881F8827881F07
:105780008CA716C0872D962D0F94410187FF0FC05F
:1057900080911C02882309F433CE10921C020E94CF
:1057A000E3DB2ECE1C2D0D2D7E2C6F2C01C01CA6F4
:1057B0000E9475E66B017C01DC01CB0128AD39AD9F
:1057C0004AAD5BAD821B930BA40BB50BB7FD33C089
:1057D000D701C60188519C4FAF4FBF4F88AF99AFDB
:1057E000AAAFBBAF80E00E940C9085E596E20E94D4
:1057F00075C881149104A104B104B9F0D501C401A4
:10580000805F984DAF4FBF4FBC01CD016C197D0932
:105810008E099F0928EE33E040E050E00F9497078F
:10582000CA01B9010E94073003C08FE30E94932F81
:105830008AE00E94932F0E94BF300E9475E6609319
:105840000C1370930D1380930E1390930F1390917C
:10585000260C9CABA091270CADABB091280CBEAB35
:10586000E091290CEFAB292F3A2F4B2F5E2F612FA0
:10587000702F872D962D0F9456081B012C0120E0C8
:1058800030E0A9010F94B70A87FF04C057FA50947B
:1058900057F8509481149104A104B104E1F420E07C
:1058A00030E040E85FE3C201B1010F94410187FF9E
:1058B0001EC0FCADFF2339F0F5E08F2EFDE09F2EDA
:1058C000A12CB12C03C0812C912C54018C0C9D1C5B
:1058D000AE1CBF1C0CC020E030E040E450E4C2012C
:1058E000B1010F94B70A181614F4460157012CA5FC
:1058F000222309F444C088A999A9AAA9BBA9892B84
:105900008A2B8B2B61F0D701C60128A939A94AA996
:105910005BA9821B930BA40BB50BB7FD30C02CA960
:105920003DA94EA95FA96DAD22967FAD229726961F
:105930008FAD26972B969FAD2B970F94560820E09E
:1059400030E040E85FE30F94410187FD21CFD701AC
:10595000C601805A9541AF4FBF4F88AB99ABAAABF8
:10596000BBAB9CA99DAFADA92296AFAF2297BEA9B4
:105970002696BFAF2697EFA92B96EFAF2B97809176
:105980001C02882309F404CF81149104A104B104FA
:1059900031F41CAEC12ED02EE72CF62CC9CEF0E18E
:1059A000CF1AF7E2DF0AE108F108C818D908EA08B7
:1059B000FB08F7FCEECFECCE9CE880E06DCE0E94B9
:1059C0005E7B88E50E9492C2882331F05F9A8091C5
:1059D00021098E7F8093210989E50E9492C2882344
:1059E00031F08A9A809121098D7F809321098AE57F
:1059F0000E9492C2882359F080910801809581709D
:105A000080930601809121098B7F8093210985E491
:105A10000E9492C2882309F4F3CC0E942E2EF0CC6F
:105A20000E946E7BEDCC602F83E50E94A1B70C94A1
:105A3000202483E50E94E0C2882391F00E945BC28B
:105A40006093BE087093BF088093C0089093C1080C
:105A50006093C6087093C7088093C8089093C908DC
:105A600080E50E94E0C2882351F00E945BC26093EF
:105A7000BE087093BF088093C0089093C10882E568
:105A80000E94E0C2882351F00E945BC26093C2086A
:105A90007093C3088093C4089093C50884E50E945E
:105AA000E0C2882309F4ACCC0E945BC26093C608B4
:105AB0007093C7088093C8089093C908A1CC82E46A
:105AC0000E9492C2882351F00E94BFB660939A0848
:105AD00070939B0880939C0890939D0883E50E9497
