:100000000C94AF180C94E0180C94E0180C94E018C1
:100010000C94E0180C94E0180C94E0180C94E01880
:100020000C94E0180C94E0180C94E0180C94E01870
:100030000C94E0180C9476670C94E0180C94E0187B
:100040000C94E0180C94E8990C94E0180C94E018C7
:100050000C94E0180C94E0180C948ED60C9469EC77
:100060000C94E0180C947A360C9470360C94E018CA
:100070000C94E0180C94E0180C94E0180C94E01820
:100080000C94E0180C94E0180C94E0180C94E01810
:100090000C94E0180C94E0180C94E0180C94E01800
:1000A0000C94E0180C94E0180C94E0180C94E018F0
:1000B0000C94E0180C94E0180C94E0180C94E018E0
:1000C0000C94E0180C94E0180C94E0180C94E018D0
:1000D0000C94E0180C94E0180C94E0180C94E018C0
:1000E0000C94E018A433A933AE33B833C2333B3495
:1000F000CC33D433DC33E633F033FA3309341334FE
:100100003B341D342734313409DF78DDB1DD45DF80
:10011000B1DDB1DDB1DDB1DDB1DDB1DDB1DDB1DD6F
:10012000B1DDB1DDB1DDB1DDB1DDB1DDB1DDB1DD5F
:10013000B1DDB1DDB1DDB1DDB1DDB1DDB1DDB1DD4F
:10014000B1DDB1DD3FDFB1DDB1DDB1DDB1DDB1DDAF
:10015000B1DDB1DDB1DD18DFB1DDB1DDB1DDB1DDC6
:10016000B1DDB1DDB1DDB1DDB1DDB1DD5CDFAEDD75
:10017000D4EBD7EBC6EBCAEBCEEB0EECDBEBDFEB55
:10018000E5EBE9EBEDEBF3EBF7EBFBEB0EEC01EC66
:1001900005EC09EC084AD73B3BCE016E84BCBFFDA1
:1001A000C12F3D6C74319ABD56833DDA3D00C77F47
:1001B00011BED9E4BB4C3E916BAAAABE00000080E0
:1001C0003F05A84CCDB2D44EB93836A9020C50B96F
:1001D000918688083CA6AAAA2ABE000000803F009B
:1001E0000C948E570C943FDF0C945BBE0C94593AE0
:1001F0000C940EEC0C94C6EB0C9466370C9463399B
:100200000C9445DF0C94E9EB0C9440380C9409DF16
:100210000C945F3A0C94818A0C949BAA0C94AC6663
:100220000C94E0370C9405DD0C9418DF0C94F0333B
:100230000C94AE330C944D370C94BD5B0C9448BABF
:100240000C94DBEB0C944A3A0C94CD390C940A3A9A
:100250000C943B340C943E570C94833A0C94AEDDD2
:100260000C94DA360C943C7F0C94F8370C94A1AAC9
:100270000C94CC330C9427340C949C3E0C94F7894A
:100280000C9411400C94FBEB0C94F5360C94F38910
:100290000C9454660C94A4330C946F370C94225A2B
:1002A0000C9456D60C94FF560C94C7570C945CDFF4
:1002B0000C94E1B90C94D05A0C943CBA0C94D7EB42
:1002C0000C94F6560C947D3A0C946B3A0C941DBA2F
:1002D0000C949FAA0C9499AA0C9421F80C940F45A5
:1002E0000C94A3AA0C9497AA0C94CB370C946D741D
:1002F0000C9489710C94B8370C94D75A0C94275AE3
:100300000C94F4B90C940C740C9494570C941740FE
:100310000C94AE390C942C5A0C94AF3E0C941B37B1
:100320000C9446570C947F6F0C947B6F0C9467BAB7
:100330000C94B1DD0C94A3570C9497370C941D408A
:100340000C945BBA0C9482390C94F4890C94FB39AC
:100350000C94653A0C9480740C942EBC0C941F8AF7
:100360000C948D6D0C94F7EB0C94793E0C9408373B
:100370000C94CEEB0C94C1360C940F400C94836F0C
:100380000C9402DD0C94EC390C94C0370C94825719
:100390000C94F3EB0C94E5EB0C9434370C941D3473
:1003A0000C94DFEB0C94A8570C9401EC0C94703E69
:1003B0000C9495AA0C9493AA0C9409340C94995714
:1003C0000C9405EC0C94C2330C949A6D0C94D86682
:1003D0000C94713A0C94DC330C947E660C940139C5
:1003E0000C94773A0C9413340C94885C0C94D433AA
:1003F0000C94D4F90C94CAEB0C9409EC0C944E5E5A
:100400000C94EDEB0C94805A0C946C3C0C94613E73
:100410000C9478DD0C940DBA0C941D5A0C949E57D4
:100420000C949DAA0C940D400C94B8330C94D4EB0E
:100430000C94E6330C9411700C94A9330C947C57F3
:100440000C941BBA0C94BB3E0C9431340C9461BADE
:100450000C94FA330C9408DD0C9465AC0C947FA9D1
:100460000C9488574E414E494E495459494E46CDF9
:10047000CCCC3D0AD7233C17B7D13877CC2B32955B
:1004800095E6241FB14F0A000020410000C8420039
:10049000401C4620BCBE4CCA1B0E5AAEC59D740003
:1004A000407A10F35A00A0724E18090010A5D4E843
:1004B0000000E87648170000E40B54020000CA9AD6
:1004C0003B000000E1F50500008096980000004028
:1004D000420F000000A0860100000010270000006D
:1004E00000E803000000006400000000000A0000B3
:1004F0000000000100000000002C76D888DC674F67
:100500000823DFC1DFAE59E1B1B796E5E3E453C696
:100510003AE651997696E8E6C28426EB898C9B628E
:10052000ED407C6FFCEFBC9C9F40F2BAA56FA5F438
:1005300090055A2AF75C936B6CF9676DC11BFCE060
:10054000E40D47FEF520E6B500D0ED902E030094B3
:100550003577050080841E080000204E0A00000048
:10056000C80C333333330F986E12831141EF8D2152
:1005700014893BE65516CFFEE6DB18D1844B381BB9
:10058000F77C1D901DA4BBE424203284725E22817E
:1005900000C9F124ECA1E53D27434F4D4D554E498F
:1005A000434154494F4E0044525952554E00455212
:1005B000524F525300494E464F004543484F005357
:1005C0006C6565702E2E2E004D65736820706F6906
:1005D0006E74206F7574206F662072616E67650A95
:1005E00000436C69636B20746F20526573756D6591
:1005F0002E2E2E004E6F204D6F76652E00456E64B8
:100600002066696C65206C6973740A0042656769CD
:100610006E2066696C65206C6973740A004E6F20E9
:100620006D656469610A00286E6F2066696C6529D2
:100630000043757272656E742066696C653A2000BD
:100640005344207072696E74696E672062797465B4
:1006500020004E6F74205344207072696E74696E6E
:10066000670A0044656C6574696F6E206661696C29
:1006700065642C2046696C653A200046696C6520EB
:1006800064656C657465643A002569792025696440
:10069000202569682025696D2025697300507269DD
:1006A0006E742074696D653A20006F66660044457B
:1006B0004255473A004D3131322053687574646FAA
:1006C000776E004D31313320530042656420436F13
:1006D0006F6C696E672E2E2E00426564204865613E
:1006E00074696E672E2E2E003344205072696E742A
:1006F0006572204F46462E004348414D4245525FA9
:1007000054454D504552415455524500424142597D
:100710005354455050494E470041524353004D4FAA
:1007200054494F4E5F4D4F44455300544845524D38
:10073000414C5F50524F54454354494F4E004C4F2B
:100740004E475F46494C454E414D45004155544F3B
:100750005245504F52545F53445F53544154555384
:10076000005344434152440050524F4D50545F5344
:100770005550504F525400454D455247454E4359F0
:100780005F50415253455200434153455F4C4947E6
:1007900048545F4252494748544E45535300544FC2
:1007A00047474C455F4C494748545300534F4654C4
:1007B000574152455F504F574552004255494C44AE
:1007C0005F50455243454E54004C4556454C494EAA
:1007D000475F44415441005A5F50524F42450052D6
:1007E000554E4F5554004155544F4C4556454C00BD
:1007F0005052494E545F4A4F420050524F47524563
:100800005353004155544F5245504F52545F544535
:100810004D5000564F4C554D4554524943004249A6
:100820004E4152595F46494C455F5452414E5346E2
:1008300045520053455249414C5F584F4E5F584F07
:100840004646004649524D574152455F4E414D453F
:100850003A4D61726C696E206275676669782D32F7
:100860002E302E7820284E6F7620323520323032CE
:10087000302031323A32343A34312920534F5552F4
:1008800043455F434F44455F55524C3A687474701A
:10089000733A2F2F6769746875622E636F6D2F4DE1
:1008A00061726C696E4669726D776172652F4D6118
:1008B000726C696E2050524F544F434F4C5F5645F7
:1008C0005253494F4E3A312E30204D414348494E04
:1008D000455F545950453A3344205072696E7465EF
:1008E000722045585452554445525F434F554E541B
:1008F0003A3120555549443A636564653261326640
:100900002D343161322D343734382D396231322D66
:100910006335356336326633363766660A002F2F05
:1009200020004D31343520533C696E6465783E209B
:100930006F7574206F662072616E67652028302D98
:1009400031290A00416363656C65726174696F6E79
:100950003A2050003F4A206F7574206F6620726104
:100960006E67652028302E303120746F20302E3392
:10097000290A0020204D61783A200020204D696E20
:100980003A2000536F667420656E6473746F7073E1
:100990003A200046523A0020466C6F773A200020F9
:1009A000643A0020693A0020703A00496E76616C22
:1009B00069642065787472756465720A006469738D
:1009C0000043290A0061626C656420286D696E200D
:1009D00074656D702000436F6C6420657874727567
:1009E0006465732061726520004F46460A004661C7
:1009F0006465204865696768742000426564204C1E
:100A00006576656C696E6720004661696C65642077
:100A1000746F20656E61626C6520426564204C6570
:100A200076656C696E670A00496E76616C69642050
:100A30006D6573682E0A004D34323120696E636F24
:100A4000727265637420706172616D657465722085
:100A500075736167650A004F66667365747320413C
:100A600070706C696564004572723A20546F6F2033
:100A70006661722100546F6F206661722066726F2A
:100A80006D207265666572656E636520706F696E54
:100A9000740A00454550524F4D204F4B0A00446F99
:100AA0006E65207072696E74696E672066696C6528
:100AB0000A004D3737004D333100BA05B505AE0594
:100AC000A70599054572726F722077726974696E15
:100AD0006720746F20454550524F4D210A004D3418
:100AE0003130004D313132004D3130380053544FE8
:100AF000505045442E20005072696E746572207308
:100B0000746F707065642064756520746F20657201
:100B1000726F72732E204669782074686520657242
:100B2000726F7220616E6420757365204D3939399A
:100B300020746F20726573746172742E202854655E
:100B40006D7065726174757265206973207265736A
:100B500065742E2053657420697420616674657213
:100B60002072657374617274696E67290A004E6F32
:100B700020436865636B73756D2077697468206CBA
:100B8000696E65206E756D6265722C204C617374A0
:100B9000204C696E653A2000636865636B73756D00
:100BA000206D69736D617463682C204C61737420CF
:100BB0004C696E653A20004C696E65204E756D6219
:100BC0006572206973206E6F74204C617374204CC1
:100BD000696E65204E756D6265722B312C204C61FB
:100BE0007374204C696E653A20004D3131300053EA
:100BF000442072656164206572726F720A0021215F
:100C0000204B494C4C2063617573656420627920E8
:100C10004B494C4C20627574746F6E2F70696E0A6C
:100C2000002121204B494C4C206361757365642081
:100C3000627920746F6F206D75636820696E6163DF
:100C4000746976652074696D65202D2063757272F4
:100C5000656E7420636F6D6D616E643A200062751D
:100C600073793A2070617573656420666F722069CC
:100C70006E7075740A00627573793A2070617573CD
:100C8000656420666F7220757365720A0062757301
:100C9000793A2070726F63657373696E670A004DED
:100CA000656469612052656D6F766564004D6564A9
:100CB000696120496E736572746564004F666600F1
:100CC0004F6E00496E6974004D34323800496E69C8
:100CD0007469616C697A6520454550524F4D0046F4
:100CE000696C616D656E74004A756E6374696F6ED0
:100CF0002044657600416363656C65726174696F59
:100D00006E0056656C6F6369747900536574204892
:100D10006F6D65204F666673657473004E657874F9
:100D200020436F726E657200446F6E65004E657889
:100D300074004C6576656C696E6720446F6E652142
:100D4000004E65787420506F696E74002569202FFD
:100D50002025750047323920563100436C69636B9A
:100D600020746F20426567696E00486F6D696E6719
:100D70002058595A004C6576656C20436F726E6539
:100D80007273004661646520486569676874004C49
:100D90006576656C204265640054656D70657261AE
:100DA000747572650041425300504C410046616EBB
:100DB000205370656564004E6F7A7A6C65004D61F2
:100DC000696E0050726568656174202420456E6408
:100DD0000050726568656174202420426564004398
:100DE0006F6F6C646F776E00507265686561742018
:100DF0002400466C6F7700A90DA50D20746F6F203D
:100E00006C6F6E6720657874727573696F6E207091
:100E1000726576656E7465640A0020636F6C642089
:100E2000657874727573696F6E2070726576656E21
:100E30007465640A00DB0FC93F45BCDA3F8FB3021B
:100E400040FCF0274056946140FE4B9B4084A5D85F
:100E500040E0231841346A5641E859974164DBD594
:100E6000416E271742B4B75542CE1A9742C8AED545
:100E700042B5885A43D40684BFA65FA7BF7443E037
:100E8000BF10B11AC01C2C58C0E8F697C0B849D69C
:100E9000C04E4E17C124D355C1802497C1A0B5D5EB
:100EA000C1121A17C244AE55C2781797C26CACD59E
:100EB000C267885AC33F0043616E63656C0042613C
:100EC000636B004D6F74696F6E004D38340053745E
:100ED000617274205072696E740043616E6E6F743B
:100EE00020656E746572207375626469723A2000C1
:100EF000022E2E00486F74656E6420746F6F20633D
:100F00006F6C640050726F6365656400446973615F
:100F1000626C6520537465707065727300417574FE
:100F20006F20486F6D650047323800456E636C6F07
:100F300073757265002568753A253032687500252D
:100F40006875642025303268753A2530326875003E
:100F500020202020202020001FE020102010201022
:100F60001020102020102010303008400480030092
:100F70001FE03FF03FF03FF01FE01FE03FF03FF089
:100F80003FF00FC0078003003FFFF038007030FCD7
:100F90003020FC102078102030102C00D02E31D0C2
:100FA0002F7BD02F7BD02E31D02C00D020301020A2
:100FB000781020FC1030FC303800703FFFF03FFF0D
:100FC000F03800703186302387102787902F87D024
:100FD0002F03D02030102078102078102030102FD0
:100FE00003D02F87D0278790238710318630380091
:100FF000703FFFF01FFFF81FFFF8041040020820A9
:101000000208200410400820801041001041000810
:1010100020800410400000001FFFF81FFFF86874D4
:101020007470733A2F2F6D61726C696E66772E6FD4
:101030007267006275676669782D322E302E7800EF
:101040002020506C616E6E657242756666657242F4
:10105000797465733A20002046726565204D656D90
:101060006F72793A2000436F6D70696C65643A2045
:101070004E6F7620323520323032300A00204C61FB
:10108000737420557064617465643A203230323074
:101090002D31312D3235207C20417574686F723AC4
:1010A00020283230313132352C204D536351290AFA
:1010B000006275676669782D322E302E780A004DF1
:1010C00061726C696E0020536F667477617265207F
:1010D00052657365740A00205761746368646F67B2
:1010E0002052657365740A002042726F776E206F1C
:1010F00075742052657365740A00204578746572B2
:101100006E616C2052657365740A00506F7765726A
:1011100055700A006175746F25632E670047323879
:101120005859004D31303031006572726F7220773E
:10113000726974696E6720746F2066696C650A0055
:10114000446F6E6520736176696E672066696C65B1
:101150002E0A004D323900456E6473746F7073004F
:101160002553202563202563202563202563006502
:101170006E6473746F7073206869743A200001FFA5
:10118000FFFFFFFFFFFFFFFFFFFFFFFF0FFFFFFF5F
:10119000FFFFFFFFFFFFFFFFFFFF1E00000000003B
:1011A000000000000007FFFF380000000000000002
:1011B00000000003FFFF70000000000000000000BE
:1011C0000001FFFF600000000000000000000000C0
:1011D000FFFF6000000000000000000000007FFF33
:1011E000C000000000000000007800003FFFC00FBA
:1011F000C0FC00000000007818001FFFC03FE1FFA6
:101200000000000000783C000FFFC07FF3FF80006B
:10121000000000783C0007FFC0FFFFFFC000000097
:1012200000783C0003FFC1F87F87E00000000078F1
:10123000000001FFC1F03F03E00000000078000063
:1012400000FFC1E01E01E01F0003E0783C03F07FD7
:10125000C1E01E01E07FC00FF8783C07FC3FC1E011
:101260001E01E1FFE01FFC783C0FFE1FC1E01E01E4
:10127000E3FFF03FFE783C1FFE0FC1E01E01E3F3E9
:10128000F83F3E783C3F3F07C1E01E01E7E0FC7CB1
:101290001F783C3E1F07C1E01E01E7C07C7C0F7831
:1012A0003C3C0F03C1E01E01E7807C780F783C3C9A
:1012B0000F03C1E01E01E7803C7800783C3C0F033F
:1012C000C1E01E01E7803C7800783C3C0F03C1E0A0
:1012D0001E01E7803C7800783C3C0F03C1E01E0112
:1012E000E7C03C7800783C3C0F03C1E01E01E3E01E
:1012F0003C78007C3C3C0F03C1E01E01E3FF3FF85B
:10130000007FBC3C0F03C1E01E01E1FF3FF8003F3E
:10131000BFFC0F03C1E01E01E0FF3FF8001FBFFC50
:101320000F03C1E01E01E07F3FF8000FBFFC0F0379
:1013300060000000000000000000000000076000E6
:101340000000000000000000000000067000000027
:101350000000000000000000000E38000000000047
:10136000000000000000001C1E0000000000000043
:101370000000000000780FFFFFFFFFFFFFFFFFFFEF
:10138000FFFFFFF001FFFFFFFFFFFFFFFFFFFFFF7A
:10139000FF8070012C0190012701B0012201C001E2
:1013A0001D01F00118011002130130020E0160024C
:1013B000090190020401C002FF000003FA0040038B
:1013C000F5008003F000D003EB002004E600700479
:1013D000E100E004DC004005D700C005D200400673
:1013E000CD00D006C8008007C3003008BE00F0085A
:1013F000B900C009B400B00AAF00B00BAA00D00C0D
:10140000A500000EA000500F9B00C01096005012C7
:10141000910000148C00C0158700B0178200B0192D
:101420007D00D01B7800001E730040206E009022CB
:101430006900F024640040275F0090295A00E02BE7
:101440005500102E500020304B0010324600E03383
:10145000410090353C001037370070383200A03919
:101460002D00B03A2800A03B2300603C1E00103D38
:101470001900903D1400103E0F00703E0A00C03E5F
:101480000500003F0000403FFBFF803FF6FFC03FEC
:10149000F1FF2053697A653A2000534420496E6970
:1014A00074204661696C0053442063617264206F4C
:1014B0006B0A006F70656E526F6F74206661696CA5
:1014C00065640A00766F6C756D652E696E697420AF
:1014D0006661696C65640A004E6F20534420636145
:1014E00072640A004D3234004D3233202573006F90
:1014F00070656E206661696C65642C2046696C6558
:101500003A200046696C652073656C656374656498
:101510000A0046696C65206F70656E65643A20004C
:10152000454E4420535542524F5554494E450A00AA
:101530002220706F73002220706172656E743A22EF
:1015400000535542524F5554494E452043414C4C4F
:10155000207461726765743A220053756263616C2E
:101560006C204F766572666C6F77004578636565B1
:10157000646564206D617820535542524F5554493B
:101580004E452064657074683A0057726974696EDC
:101590006720746F2066696C653A20006672657317
:1015A0006800646F696E67004E6F772000025072AA
:1015B000696E742041626F72746564004D3235004B
:1015C00050617573696E672E2E2E004D6F76696EB1
:1015D000672E2E2E0046696C2E204469612E004530
:1015E00020696E206D6D5E330020082046616374B3
:1015F000002008204D6178002008204D696E0041D0
:1016000075746F74656D70006F70656E005452492B
:10161000474745524544007A5F6D696E00795F6DBA
:10162000696E00785F6D696E005265706F727469E3
:101630006E6720656E6473746F7020737461747567
:10164000730A00486F6D696E67204661696C656456
:10165000005761726E696E673A20486F6D696E67F8
:101660002042756D702044697669736F72203C204A
:10167000310A000000484200004842000080400259
:1016800002040000A0400000A04000000040FFFF56
:10169000FF00000000000000000000000000009BB0
:1016A0004300009B430000C84353657474696E6730
:1016B000732053746F7265640053657474696E6748
:1016C000732053746F726564202800236465666913
:1016D0006E652044454641554C545F004B642000E4
:1016E0004B6920004B702000504944204175746FB5
:1016F00074756E652066696E697368656421205033
:10170000757420746865206C617374204B702C2094
:101710004B6920616E64204B6420636F6E7374614B
:101720006E74732066726F6D2062656C6F772069CE
:101730006E746F20436F6E66696775726174696F4E
:101740006E2E680A00504944204175746F74756E9E
:1017500065206661696C6564212074696D656F75CB
:10176000740A000A20436C61737369632050494412
:10177000200A00204B643A2000204B693A200020C8
:101780004B703A20002054753A2000204B753A20C7
:1017900000206D61783A2000206D696E3A200020AB
:1017A000643A200020626961733A20005049442065
:1017B0004175746F74756E652073746172740A007C
:1017C000504944204175746F74756E652066616977
:1017D0006C6564212054656D706572617475726505
:1017E00020746F6F20686967680A0050494420417F
:1017F00075746F74756E6500504944204175746F3F
:1018000074756E65206661696C656421204261644F
:10181000206578747275646572206E756D6265728C
:101820000A004572723A207574663820666F6E74CD
:10183000206E6F7420696E697469616C697A656481
:101840002E00000C0F00FE07022503BB017FFE08DF
:10185000FE08FE05080806000040F0C88888987851
:1018600010050808060000C0F88888888888F805F0
:1018700005050600012030F83020050808060000A4
:101880002070F820202020E00509090600FF2070C4
:10189000A8A8B888887020070505070001D86C360D
:1018A0006CD80509090600FFF8A88888888888A8E8
:1018B000F8050A0A0600FE205050505088A8A88853
:1018C0007003030306000340A040FFFFFFFFFFFF7C
:1018D000FFFFFFFFFFFFFFFFFFFFFFFFFFFFFFFF18
:1018E0000000000605FF01070706020080808080D7
:1018F000800080030303060105A0A0A005060606DC
:10190000000050F85050F8500509090600FF2070FB
:10191000A8A07028A87020050707060000C8C810F6
:101920002040989805070706000040A0A040A89016
:10193000680103030602058080800309090601FF90
:101940002040408080804040200309090601FF803C
:10195000404020202040408005070706000020A8C6
:10196000702070A8200505050600012020F8202021
:101970000203030601FFC04080050101060003F8D1
:10198000020202060100C0C0050707060000081099
:101990001020404080050707060000708898A8C8FE
:1019A000887003070706010040C040404040E00542
:1019B0000707060000708808102040F80507070692
:1019C0000000F808103008887005070706000010AE
:1019D000305090F81010050707060000F880F00856
:1019E000088870050707060000304080F08888707E
:1019F000050707060000F80810102020200507073B
:101A00000600007088887088887005070706000047
:101A100070888878081060020505060100C0C000C3
:101A2000C0C00206060601FFC0C000C0408003051A
:101A3000050601012040804020050303060002F84E
:101A400000F80305050601018040204080050707D6
:101A500006000070881020200020050707060000FF
:101A60007088B8A8B88070050707060000708888DD
:101A7000F8888888050707060000F048487048483D
:101A8000F0050707060000708880808088700507D1
:101A900007060000F04848484848F00507070600D8
:101AA00000F88080F08080F8050707060000F880C5
:101AB00080F080808005070706000070888080988D
:101AC0008870050707060000888888F888888803DA
:101AD0000707060100E04040404040E005070706D8
:101AE00000003810101010906005070706000088ED
:101AF00090A0C0A090880507070600008080808025
:101B00008080F805070706000088D8A8888888889C
:101B10000507070600008888C8A898888805070771
:101B2000060000708888888888700507070600000E
:101B3000F08888F08080800507070600007088889C
:101B400088A89068050707060000F08888F0A09034
:101B500088050707060000708880700888700507F0
:101B600007060000F8202020202020050707060097
:101B7000008888888888887005070706000088889C
:101B8000888850502005070706000088888888A8A4
:101B9000A85005070706000088885020508888054F
:101BA0000707060000888850202020200507070628
:101BB0000000F80810204080F80309090601FFE042
:101BC00080808080808080E00507070600008040DC
:101BD00040201010080309090601FFE02020202002
:101BE000202020E0050303060005205088050101A0
:101BF0000600FEF8030303060105804020050505E5
:101C000006000070087888780507070600008080C5
:101C1000F0888888F00505050600007080808870CF
:101C200005070706000008087888888878050505F4
:101C30000600007088F08070050707060000304835
:101C400040E04040400507070600FE70888888781D
:101C500008700507070600008080F08888888803E0
:101C600007070601004000C0404040E004090906A3
:101C700001FE1000301010101090600507070600DC
:101C80000080808890E09088030707060100C0402C
:101C900040404040E0050505060000D0A8A8A8A8DF
:101CA000050505060000B0C88888880505050600FA
:101CB0000070888888700507070600FEF08888880D
:101CC000F080800507070600FE7888888878080875
:101CD000050505060000B0C88080800505050600E2
:101CE0000078807008F00507070600002020F82023
:101CF00020201805050506000088888898680505D5
:101D00000506000088888850200505050600008823
:101D100088A8A850050505060000885020508805B1
:101D200007070600FE8888885020408005050506C4
:101D30000000F8102040F80309090601FF20404088
:101D40004080404040200109090602FF80808080D9
:101D500080808080800309090601FF804040402088
:101D60004040408005030306000248A890FF4572EA
:101D7000723A204D415854454D50004D41585445FC
:101D80004D502074726967676572656400457272B0
:101D90003A204D494E54454D50004D494E54454D05
:101DA000502074726967676572656400202F002097
:101DB00042403A0020403A007C3C3E5E2B3D3F2FA3
:101DC0005B5D3B2C2A225C000009121B242D363F50
:101DD00048415A536C657E7719100B023D342F260B
:101DE0005158434A757C676E323B2029161F040DFB
:101DF0007A7368615E574C452B2239300F061D14EB
:101E0000636A7178474E555C646D767F4049525BDA
:101E10002C253E3708011A137D746F6659504B42CA
:101E2000353C272E1118030A565F444D727B6069BA
:101E30001E170C053A3328214F465D546B627970AA
:101E4000070E151C232A31384148535A656C777E9A
:101E500009001B122D243F3658514A437C756E678A
:101E60001019020B343D262F737A6168575E454C7A
:101E70003B3229201F160D046A6378714E475C556A
:101E8000222B3039060F141D252C373E0108131A5A
:101E90006D647F7649405B523C352E2718110A034A
:101EA000747D666F5059424B171E050C333A21283A
:101EB0005F564D447B7269600E071C152A2338312A
:101EC000464F545D626B707920520020204D3330B4
:101ED000312050005049442073657474696E6773F3
:101EE0003A0020460020480020204D313435205350
:101EF000004D6174657269616C206865617475700C
:101F000020706172616D65746572733A00202047BC
:101F10003239205720490020204D343230205300E0
:101F20004175746F20426564204C6576656C696EFE
:101F3000673A0020204D323036205800486F6D65DA
:101F4000206F66667365743A00204A0020204D3287
:101F50003035204200416476616E6365643A204208
:101F60003C6D696E5F7365676D656E745F74696DF6
:101F7000655F75733E20533C6D696E5F6665656491
:101F8000726174653E20543C6D696E5F7472617657
:101F9000656C5F66656564726174653E204A3C6A83
:101FA000756E635F6465763E0020540020204D32DC
:101FB0003034205000416363656C65726174696FF1
:101FC0006E2028756E6974732F7332293A20503C45
:101FD0007072696E745F616363656C3E20523C721F
:101FE0006574726163745F616363656C3E20543C29
:101FF00074726176656C5F616363656C3E0020207E
:102000004D3230312058004D6178696D756D204139
:102010006363656C65726174696F6E2028756E69A3
:1020200074732F7332293A0020204D3230332058F8
:10203000004D6178696D756D2066656564726174C7
:1020400065732028756E6974732F73293A00537471
:102050006570732070657220756E69743A00204453
:102060000020204D323030205300204469736162DB
:102070006C65640A0046696C616D656E74207365F9
:102080007474696E67733A0020204D3134392043EF
:10209000203B20556E69747320696E2043656C7314
:1020A0006975730A0020286D6D29002020473231A0
:1020B000202020203B20556E69747320696E206DAE
:1020C0006D0024F4D43050C38E20C2A24017828BFE
:1020D0007011127A910D816CD90AA861E108C75874
:1020E0006607615143061E4B5D05C145A7041A41B1
:1020F0001104093D9803713931034036DB02653321
:102100009102D4305402802E1D02632CEE01752AF8
:10211000C501B028A001102781018F2564012B245F
:102120004B01E0223401AC211F018D200D01801FE5
:10213000FC00841EED00971DDF00B81CD200E61BDA
:10214000C600201BBC00641AB200B219A8000A190C
:10215000A0006A189900D117910040178B00B5169E
:10216000840031167E00B31579003A157300C71448
:102170006F0058146A00EE1366008813630025137D
:102180005E00C7125B006C12570015125400C1119B
:10219000510070114F0021114B00D61049008D10D5
:1021A00047004610440002104200C00F4000800F5C
:1021B0003E00420F3C00060F3B00CB0E3800930E52
:1021C00037005C0E3500270E3400F30D3200C10DD0
:1021D0003100900D3000600D2E00320D2D00050DE8
:1021E0002C00D90C2B00AE0C2900850C29005C0CAE
:1021F0002700350C27000E0C2600E80B2400C40B2A
:102200002400A00B23007D0B23005A0B2100390B67
:102210002100180B2000F80A1F00D90A1E00BB0A73
:102220001E009D0A1D00800A1D00630A1C00470A4B
:102230001B002C0A1B00110A1A00F7091A00DD09FD
:102240001900C4091900AB091900920917007B098C
:102250001800630917004C091600360916002009FA
:1022600016000A091500F5081500E0081400CC084E
:102270001400B8081400A4081400900813007D0886
:1022800012006B08130058081200460812003408A8
:102290001100230811001208110001081100F007B5
:1022A0001000E0071000D0071000C0071000B007B2
:1022B0000F00A107100091070E0083070F0074079D
:1022C0000F0065070E0057070E0049070E003B0779
:1022D0000D002E070E0020070D0013070D00060746
:1022E0000D00F9060C00ED060D00E0060C00D4060A
:1022F0000C00C8060C00BC060C00B0060C00A406BE
:102300000B0099060C008D060B0082060B00770669
:102310000B006C060B0061060A0057060B004C060A
:102320000A0042060A0038060A002E060A002406A1
:102330000A001A060A001006090007060A00FD0531
:102340000900F4050900EB050900E2050900D905BB
:102350000900D0050900C7050900BE050900B5053B
:102360000800AD050800A50509009C0508009405B6
:1023700008008C050800840508007C050800740529
:1023800008006C050700650508005D050700560597
:1023900008004E05070047050700400508003805FE
:1023A0000700310507002A050700230507001C0563
:1023B0000600160507000F050700080506000205C0
:1023C0000700FB040600F5040700EE040600E8041D
:1023D0000600E2040700DB040600D5040600CF0473
:1023E0000600C9040600C3040600BD040600B704C5
:1023F0000600B1040500AC040600A6040600A00413
:1024000005009B04060095040500900406008A045C
:10241000050085040500800406007A0405007504A3
:102420000500700405006B040500660405006104E6
:1024300005005C04050057040500520405004D0426
:10244000050048040500430405003E0404003A0466
:10245000050035040500300404002C0405002704A1
:102460000400230405001E0404001A0404001604DA
:102470000500110404000D0404000904050004040F
:10248000040000040400FC030400F8030400F40347
:102490000400F0030400EC030400E8030400E40378
:1024A0000400E0030400DC030400D8030400D403A8
:1024B0000400D0030400CC030400C8030300C503D8
:1024C000030024F404D9201BC40C5C0E9804C40936
:1024D0005F0265077101F405F900FB04B3004804CD
:1024E0008700C10369005803550003034500BE027D
:1024F0003A008402310053022A0029022500040216
:102500002000E4011C00C8011900AF011700980168
:1025100014008401130071011000610110005101C9
:102520000E0043010D0036010B002B010B002001B2
:102530000B00150109000C01090003010800FB0054
:102540000800F3000800EB000700E4000600DE00CE
:102550000600D8000600D2000600CC000500C70027
:102560000500C2000500BD000400B9000400B5006C
:102570000400B1000400AD000400A9000400A5009F
:102580000300A20003009F0004009B0003009800CA
:1025900003009500020093000300900003008D00EB
:1025A00002008B0003008800020086000200840005
:1025B0000300810002007F0002007D0002007B001A
:1025C000020079000200770001007600020074002A
:1025D000020072000100710002006F0002006D0035
:1025E00001006C0002006A0001006900020067003F
:1025F0000100660001006500010064000200620045
:10260000010061000100600001005F0002005D0048
:1026100001005C0001005B0001005A00010059004C
:10262000010058000100570001005600010055004C
:10263000010054000100530000005300010052004B
:10264000010051000100500001004F0001004E0048
:1026500000004E0001004D0001004C0001004B0045
:1026600000004B0001004A00010049000100480041
:10267000000048000100470001004600000046003D
:102680000100450000004500010044000100430036
:102690000000430001004200000042000100410030
:1026A000000041000100400001003F0000003F0029
:1026B00001003E0000003E0001003D0000003D0022
:1026C00001003C0000003C0000003C0001003B0019
:1026D00000003B0001003A0000003A000100390010
:1026E0000000390001003800000038000000380008
:1026F00001003700000037000100360000003600FE
:1027000000003600010035000000350000003500F3
:1027100001003400000034000000340001003300E8
:1027200000003300000033000100320000003200DE
:1027300000003200010031000000310000003100D3
:1027400001003000000030000000300001002F00C8
:1027500000002F0000002F0000002F0001002E00BD
:1027600000002E0000002E0001002D0000002D00B2
:1027700000002D0000002D0001002C0000002C00A6
:1027800000002C0000002C0001002B0000002B009A
:1027900000002B0000002B0001002A0000002A008E
:1027A00000002A0000002A00010029000000290082
:1027B0000000290000002900000029000100280075
:1027C0000000280000002800000028000000280069
:1027D000010027000000270000002700000027005C
:1027E000000027000100260000002600000026004F
:1027F0000000260000002600010025000000250042
:102800000000250000002500000025000000250034
:102810000100240000002400000024000000240027
:10282000000024000100230000002300000023001A
:10283000000023000000230000002300000023000C
:1028400001002200000022000000220000002200FF
:1028500000002200000022000100210000002100F1
:1028600000002100000021000000210000002100E4
:1028700000002100010020000000200000002000D6
:1028800000002000000020000000200000002000C8
:102890000000200001001F0000001F0000001F00BA
:1028A00000001F0000001F0000001F0000001F00AC
:1028B00001001E0000001E0000001E0000001E009F
:1028C0000000043700001E290000511B00005810B2
:1028D000000010090000CC04000078020000410153
:1028E000000000002200250028002B002E003100EF
:1028F000340002010000050108010B010000210065
:10290000240027002A002D003000330001010000C0
:10291000040107010A01050505050705080808085F
:10292000020202020A0A0808040404040101010167
:102930000101010103030303030303030407070762
:102940000C0C0C0C0C0C0C0C020202020606060607
:10295000060606060B0B0B0B0B0B0B0B01021020D4
:1029600020080810204010204080020102010804C5
:102970000201010204081020408080402010080459
:1029800002018004020180402010080402010804B2
:1029900002010102040810204080010204081020F6
:1029A000408000002110422063308440A550C66062
:1029B000E770088129914AA16BB18CC1ADD1CEE1FC
:1029C000EFF13112100273325222B5529442F77273
:1029D000D662399318837BB35AA3BDD39CC3FFF34C
:1029E000DEE36224433420040114E664C774A44483
:1029F00085546AA54BB528850995EEE5CFF5ACC59C
:102A00008DD55336722611163006D776F666955652
:102A1000B4465BB77AA719973887DFF7FEE79DD7EB
:102A2000BCC7C448E5588668A778400861180228E2
:102A30002338CCC9EDD98EE9AFF9488969990AA93B
:102A40002BB9F55AD44AB77A966A711A500A333AB2
:102A5000122AFDDBDCCBBFFB9EEB799B588B3BBB8B
:102A60001AABA66C877CE44CC55C222C033C600C42
:102A7000411CAEED8FFDECCDCDDD2AAD0BBD688DDB
:102A8000499D977EB66ED55EF44E133E322E511E92
:102A9000700E9FFFBEEFDDDFFCCF1BBF3AAF599F2B
:102AA000788F8891A981CAB1EBA10CD12DC14EF1CB
:102AB0006FE18010A100C230E32004502540467031
:102AC0006760B9839893FBA3DAB33DC31CD37FE35C
:102AD0005EF3B1029012F322D23235421452776281
:102AE0005672EAB5CBA5A89589856EF54FE52CD52C
:102AF0000DC5E234C324A0148104667447642454D1
:102B00000544DBA7FAB79987B8975FE77EF71DC73B
:102B10003CD7D326F2369106B01657667676154620
:102B200034564CD96DC90EF92FE9C899E9898AB98B
:102B3000ABA94458654806782768C018E108823870
:102B4000A3287DCB5CDB3FEB1EFBF98BD89BBBAB9B
:102B50009ABB754A545A376A167AF10AD01AB32AC0
:102B6000923A2EFD0FED6CDD4DCDAABD8BADE89DEB
:102B7000C98D267C076C645C454CA23C832CE01C10
:102B8000C10C1FEF3EFF5DCF7CDF9BAFBABFD98F7B
:102B9000F89F176E367E554E745E932EB23ED10E60
:102BA000F01E5654726176204D696E00566D696E46
:102BB00000566D6178204500566D6178205A0056A8
:102BC0006D6178205900566D6178205800416D6123
:102BD00078204500416D6178205A00416D61782070
:102BE0005900416D6178205800412D54726176651D
:102BF0006C00412D526574726163740041636365BA
:102C00006C00452073746570732F6D6D005A2053EE
:102C1000746570732F6D6D00592053746570732F38
:102C20006D6D00582053746570732F6D6D00436196
:102C3000703A0047322F473320626164207061721E
:102C4000616D65746572730A00656E717565756591
:102C5000696E672022006F6B00526573656E643A7F
:102C6000200020573A0045202553004C6F61642016
:102C700053657474696E67730053746F7265205383
:102C8000657474696E677300416476616E63656430
:102C90002053657474696E677300436F6E6669676D
:102CA00075726174696F6E00526573746F7265201E
:102CB00044656661756C7473005072656865617413
:102CC000202420436F6E660053746F700043686168
:102CD0006E6765204D65646961004D323100526553
:102CE00073756D65205072696E74004E6F204D656E
:102CF0006469610054756E650053746F7020507282
:102D0000696E74005061757365205072696E74004D
:102D1000496E666F2053637265656E004772696421
:102D20002070726F62696E6720646F6E652E0A0094
:102D300069646C650A00206F662000706F696E74AC
:102D400020004D616E75616C2047323920004D6165
:102D50006E75616C204732392061626F72746564F0
:102D60000A00202844525952554E29004732392032
:102D70004175746F20426564204C6576656C696EA0
:102D800067003F20284C2C522C462C4229206F757E
:102D900074206F6620626F756E64732E0A003F2880
:102DA00056296572626F7365206C6576656C206963
:102DB0006D706C61757369626C652028302D3429E3
:102DC0002E0A00426164205A2076616C75650A0003
:102DD0004E6F2062696C696E65617220677269640A
:102DE0000A00204D393220580020496E76616C6906
:102DF000642065787472756465722000506C65613A
:102E00007365205265736574005052494E544552A3
:102E10002048414C5445440025533A202553004B4B
:102E2000494C4C45442E20005072696E74657220E6
:102E300068616C7465642E206B696C6C2829206352
:102E4000616C6C6564210A006563686F3A004572C5
:102E5000726F723A0042696C696E656172204C65EE
:102E600076656C696E6720477269643A0A00206271
:102E7000797465733B2063726320004E6F20454573
:102E800050524F4D2E0A00454550524F4D2064611F
:102E9000746173697A65206572726F722E0A002000
:102EA00073746F7265642073657474696E677320E0
:102EB00072657472696576656420280020286361F4
:102EC0006C63756C6174656429210A0020213D20C2
:102ED00000454550524F4D20435243206D69736D5C
:102EE00061746368202D202873746F7265642920D3
:102EF00000496E6465783A200044494749504F5470
:102F000053204C6F616465640A0044494749504F3F
:102F10005453204C6F6164696E670A00204D6172E2
:102F20006C696E3D563832290A00454550524F4D66
:102F30002076657273696F6E206D69736D6174635D
:102F4000682028454550524F4D3D00454550524F51
:102F50004D20496E697469616C697A65640A00483C
:102F6000617264636F6465642044656661756C7446
:102F70002053657474696E6773204C6F6164656477
:102F80000A003B200000004843000048430000C006
:102F90004000008C420000A0420000A0420000C897
:102FA000430000C042F4010000F40100006400008E
:102FB000009001000020436F756E7420583A004560
:102FC0003100626564002C2073797374656D207321
:102FD000746F7070656421204865617465725F4923
:102FE000443A200048656174696E67204661696CE7
:102FF00065640048656174696E67206661696C6527
:103000006400202D20496E76616C696420657874B7
:103010007275646572206E756D62657220210A009A
:10302000544845524D414C2052554E41574159004C
:10303000546865726D616C2052756E6177617900BC
:103040005072696E742066726F6D204D656469619F
:1030500000486F6D652025732573257320466972BE
:10306000737400220A00556E6B6E6F776E20636F6B
:103070006D6D616E643A2022003344205072696E97
:103080007465722052656164792E005072696E74A5
:10309000696E672E2E2E005072696E742050617515
:1030A0007365640020453A00205A3A0020593A00DE
:1030B00043616E6E6F74206F70656E20737562640D
:1030C000697220004D6F7665205A004D6F7665203D
:1030D00025736D6D004D6F766520302E316D6D005E
:1030E0004D6F766520316D6D004D6F766520313006
:1030F0006D6D004D6F766520417869730045787479
:103100007275646572004D6F76652059004D6F765B
:103110006520580000000A0B02090C0D0E08070379
:10312000040100000000000000000000000000009A
:10313000000000000000000000000000000000008F
:10314000121110000000000000000000000000004C
:1031500000000000000000000000D4F921F8112454
:103160001FBECFEFD1E2DEBFCDBF00E00CBF13E04A
:10317000A0E0B2E0EAECF7E102E00BBF02C007908A
:103180000D92A030B107D9F724E1A0E0B3E001C06F
:103190001D92AA34B207E1F718E1CEEAD8E100E0C7
:1031A00006C021970109802FFE010F942108CD3A16
:1031B000D10780E00807A9F70E949DF10D94D30B79
:1031C0000C9400002F923F924F925F926F927F92E9
:1031D0008F929F92AF92BF92CF92DF92EF92FF9227
:1031E0000F931F93CF93DF93CDB7DEB7CB54D109A5
:1031F0000FB6F894DEBF0FBECDBF2C968FAF2C97C5
:1032000020910A032A962FAF2A9721E020930A03E0
:10321000809186128D3409F4B9C2843511F40C946E
:10322000DB29873411F00C94FE292091841230910F
:1032300085122B31310509F488C090F42430310512
:1032400030F48091B40A2230310558F134C0243072
:103250003105E9F12531310511F40C94002A92C2AF
:103260002A32310509F4A5C160F42C31310509F485
:103270000DC12D31310509F085C20E94E6C10C94C3
:10328000002A2B35310509F411C12C35310509F41B
:1032900012C12A35310509F075C2109209030C9448
:1032A000002A813011F00C94002A0E94DDBF0E9498
:1032B000E7750C94002A813011F00C94002A22301A
:1032C000310509F080E00E94E6B30C94002A80E505
:1032D0000E94B3C8882329F00E94DCC06B017C01E6
:1032E00003C0C12CD12C760183E50E94B3C888238A
:1032F00061F00E942EC820E030E04AE754E40F94C9
:1033000094010F94B7096B017C010E948C85809118
:10331000710B811105C060E08FEB95E00E9436745F
:103320000E945DECC60ED71EE81EF91E0E945DECE1
:10333000DC01CB018C199D09AE09BF09B7FD02C0A4
:103340000C94002A0E94BF30F1CF0E9465E28111E7
:103350000C94002A8CE0E7E7F2E0DE011196019080
:103360000D928A95E1F760E070E080E50E948EC0E2
:1033700040E050E068EC72E44CA35DA36EA37FA331
:1033800040E050E060EA70E448A359A36AA37BA33D
:10339000813019F0823039F029C0BE01605E7F4F64
:1033A000CE01099658C029853A854B855C85609188
:1033B000C80C7091C90C8091CA0C9091CB0C0F94E1
:1033C00044086B017C0120E030E048EC53E40F94AA
:1033D0002E0187FD06C0C12CD12C58ECE52E53E4FC
:1033E000F52ECC8EDD8EEE8EFF8E30C020E030E0EC
:1033F00040E050E46091C80C7091C90C8091CA0CF7
:103400009091CB0C0F9444087B018C0120E030E0BC
:1034100048EC53E40F94A40A181624F4E12CF12C80
:1034200008EC13E4A984BA84CB84DC849701A80156
:10343000B501C6010F94A40A181614F4750186018B
:10344000C701D8018C8F9D8FAE8FBF8FBE01605E8C
:103450007F4FCE014C960E94B979E090C80CF09055
:10346000C90C0091CA0C1091CB0C2D813E814F816B
:10347000588569817A818B819C81DE0194966D01EA
:103480000E94F8780E94DA790C94002A8091E71360
:103490008770873011F00C940D2A60E08FE40E9451
:1034A000BEC181110C94002A0C940D2A8FE08093E8
:1034B00009030C94002A93E8292E92E0392E26EE77
:1034C000E22E2BE0F22EE0ECFCE0F9A7E8A734E1D5
:1034D000C32E34E1D32E00E010E0D1018D911D0107
:1034E0000E94B3C8882309F44BC00E942EC82B0148
:1034F0003C01133049F0F601208131814281538132
:103500000F9443082B013C01A8A5B9A52D913D912D
:103510004D915C91C301B2010F9443084B015C01D2
:103520002DEB37E346E855EB0F94A40A87FD0AC05C
:103530002DEB37E346E855E3C501B4010F942E01A6
:103540001816F4F4133051F44092CC0C5092CD0C78
:103550006092CE0C7092CF0C01E012C0A5019401D4
:10356000F70160817181828193810F944408D701B2
:103570006D937D938D939C931397812F0E94267555
:103580001F5FB4E0EB0EF11CE8A5F9A53496F9A78E
:10359000E8A7F4E0CF0ED11C143009F09ECF002331
:1035A00021F08CEC9CE00E946A880E94DA790C94ED
:1035B000002A8091B40A813011F00C94002A89E429
:1035C0000E94B3C8E82E882321F00E94D3C1082F9F
:1035D00001C000E08AE40E94B3C8F82E882321F0DD
:1035E0000E94D3C1182F01C010E0EE2011F003306B
:1035F00020F4FF2041F0133030F088EC95E00E9479
:1036000048CE0C94002A80E1E0ECFCE0A2EFBBE0A5
:1036100001900D928A95E1F7EE2019F1602F000FCD
:10362000770B880B990B0F9435012091340C309156
:10363000350C4091360C5091370C0F949401209129
:10364000791330917A1340917B1350917C130F942E
:1036500044086093F20B7093F30B8093F40B9093F8
:10366000F50BFF2019F1612F110F770B880B990BC8
:103670000F9435012091380C3091390C40913A0C5F
:1036800050913B0C0F94940120917D1330917E1347
:1036900040917F13509180130F9444086093F60B70
:1036A0007093F70B8093F80B9093F90B40E050E088
:1036B000BA0186E40E94158E6B017C0120E030E0A7
:1036C000A9010F94A40A18165CF420E030E040E74A
:1036D00052E4C701B6010F943E096B017C0103C09F
:1036E000C12CD12C76018090250290902602A090CA
:1036F0002702B090280220E030E0A901C701B601FE
:103700000F942E01882341F0C0922502D092260208
:10371000E0922702F09228020091230210912402E5
:1037200084E690E09093240280932302C0900602E6
:10373000D0900702E0900802F090090280E090E04B
:10374000A0E8BFE38093060290930702A0930802CB
:10375000B09309020E94E77580922502909226029A
:10376000A0922702B0922802109324020093230211
:10377000C0920602D0920702E0920802F09209027B
:103780000C94002A0E9457E20C94002A8091841223
:10379000909185128237910509F439C708F0AFC0BE
:1037A0008B34910509F4A5C408F045C08831910512
:1037B00009F4BBC228F58231910509F445C648F4E5
:1037C0008230910508F4F7C1419709F451C20C9475
:1037D000D8298531910509F490C228F4449709F459
:1037E0005BC20C94D8298631910509F48AC24797A7
:1037F00011F00C94D829E0918212F091831289C2C1
:103800008C31910509F417C338F48A31910509F414
:10381000B1C208F496C2BCC28E31910509F41AC334
:1038200008F411C38F31910509F4B8C3809709F4E6
:1038300072C30C94D8298836910509F477C4A8F589
:103840008235910509F4F1C500F58D34910509F42F
:1038500069C408F452C48135910511F00C94D8293B
:103860000E94DFD60E94017B0E949C850E94FF2E51
:1038700068EE73E080E090E00E9424CE60E088EE85
:1038800096E00E9436740C94002A8435910509F460
:10389000DBC508F4D2C58535910509F40BC68C3516
:1038A000910509F42AC60C94D8298D36910509F49E
:1038B00064C4A8F48A36910509F479C408F461C493
:1038C0008B36910509F4B1C48C36910511F00C9436
:1038D000D82910929D0B10921C020C94002A8F364E
:1038E000910509F4C0C408F4ABC48037910509F40C
:1038F000FFC48137910509F408C50C94D8298D3D82
:10390000910511F40C94EB2508F0D5C08B39910585
:1039100009F463C508F0A4C08737910509F4C8C647
:1039200008F08EC08537910509F478C608F086C680
:103930008337910511F00C94D82983E498E00E9414
:1039400048CE60E083E398E00E9439B960E08EE100
:1039500098E00E9439B961E088ED9CE00E9439B995
:1039600061E083E198E00E9439B961E083E098E08A
:103970000E9439B960E08AEF97E00E9439B961E0AE
:1039800080EF97E00E9439B960E086EE97E00E94F0
:1039900039B960E08FED97E00E9439B960E087EDBA
:1039A00097E00E9439B961E089EC97E00E9439B94B
:1039B00060E08BEB97E00E9439B960E08CEA97E019
:1039C0000E9439B960E08EE997E00E9439B960E061
:1039D00088E897E00E9439B960E087E797E00E94A5
:1039E00039B960E088E697E00E9439B961E081E684
:1039F00097E00E9439B960E08CE497E00E9439B901
:103A000060E08EE397E00E9439B961E08BE297E0D5
:103A10000E9439B960E08EE197E00E9439B961E017
:103A200089E197E00E9439B960E08CE097E00E945C
:103A300039B960E088EF96E00E9439B90C94002A09
:103A40008937910509F43FC608F435C68C389105CD
:103A500009F480C48139910509F43CC60C94D82935
:103A60008C3C910509F433C7A8F4883C910509F40E
:103A7000A5C630F48E3B910509F48DC40C94D82969
:103A8000893C910509F4E1C68B3C910509F400C716
:103A90000C94D8298E3C910509F460C708F44BC7F3
:103AA000833D910509F4AAC78C3D910511F40C944E
:103AB000C4250C94D8298C3A31E0930711F40C9466
:103AC0002F2998F58F3251E0950711F40C941A279D
:103AD00080F48D32B1E09B0711F40C94562610F05F
:103AE0000C94D6268C32914011F40C9441260C94FF
:103AF000D8298A3921E0920709F403C448F48039AF
:103B0000914011F00C94D8290E948C850C94002AC5
:103B1000843A51E0950711F40C941D27853A9140A1
:103B200011F40C94B8280C94D829883FB1E09B0775
:103B300011F40C94932928F5853FF1E09F0711F4C7
:103B40000C948D2948F4843F914011F00C94D829AD
:103B50000E94A17F0C94002A863F41E0940711F453
:103B60000C949029873F914011F00C94D82961E082
:103B700083E50E94BEC191E089270E9408A10C94B0
:103B8000002A803AA3E09A0709F4FAC138F48C308D
:103B9000924011F40C94A3290C94D829873EF3E0A9
:103BA0009F0711F40C94B029893E934011F40C94B2
:103BB000BE290C94D82980E50E94B3C8882329F037
:103BC0000E94DCC06B017C0103C0C12CD12C7601AA
:103BD00083E50E94B3C8882361F00E942EC820E0CC
:103BE00030E04AE754E40F9494010F94B7096B0155
:103BF0007C010E948C8580918212909183120097A3
:103C000021F061E00E94927405C060E081EE95E0D1
:103C10000E94367410910A0383E080930A0381E0C6
:103C200080939D0BC114D104E104F10431F00E9492
:103C30005DECC60ED71EE81EF91E80919D0B8823F1
:103C400011F40C94C42AC114D104E104F10411F458
:103C50000C94C02A0E945DECDC01CB018C199D09FB
:103C6000AE09BF09B7FF02C00C94C02A0C94C42A45
:103C700080917E1284FF02C00C94CB2A8091801226
:103C800087FF02C00C94CB2A80918112837011F0BF
:103C90000C94CB2A0C94E72A80911C1183FF25C039
:103CA0008CE096E00E9448CE80911C1183FF17C0E3
:103CB00085E59FE00E94AE938BE1E5E5FFE0DE0144
:103CC000119601900D928A95E1F760E070E0CE01C7
:103CD00001960E9439EACE0101960E94B3938DEFBE
:103CE00095E00E9448CE0C94002A0E9435CF8DE1C9
:103CF00096E00E9448CE0C94002A0E94566C0C94C8
:103D0000002A0E94456C0C94002A803209F410822B
:103D1000319680818111F9CF60E08091821290917B
:103D200083120E947A6A0C94002A0E94DF2E882354
:103D300021F00E94986B0E94DD7A0E94CBE10C94E6
:103D4000002A80911C1182FF03C08B7F80931C117D
:103D500080911314813089F782E0809313140E94BC
:103D60005DEC6093E20B7093E30B8093E40B909314
:103D7000E50BE3CF80911C1183FD02C00C94002A57
:103D800083E50E94B3C881110C94F52A0C94002A93
:103D900083E40E9465C8882319F181E396E00E94BC
:103DA00048CE8091FF0E882391F0BE016F5F7F4F58
:103DB0008CEF9EE00E9475928E010F5F1F4FD8011D
:103DC0008D918D01882339F00E94932FF8CF87E2DF
:103DD00096E00E9448CE8AE00E94932F0C94002A1D
:103DE00080911C1182FF21C080E496E00E9448CEA1
:103DF000609118117091191180911A1190911B11F5
:103E00004AE00E949A2F8FE20E94932F6091141132
:103E10007091151180911611909117114AE00E942E
:103E20009A2F0E9498300C94002A82E596E00E9416
:103E300048CE0C94002A80918212909183120E94A5
:103E4000326A0C94002A80911C118E7F80931C1181
:103E50000C94002A80911C1183FD02C00C94002A4E
:103E60000E9440E280911C1183FD02C00C94002A44
:103E70004091821250918312BE01645E7F4F80E0B8
:103E80000E9431A88C01009711F40C94002A6C8DCB
:103E90007D8D19821C8222E0AC01CE0101960E9428
:103EA0008E96811102C0F12C14C0CE0101960E94A1
:103EB0009FA78823C1F361E0CE0101960E94599229
:103EC000009789F325EEFC0120831C820E94D8E52F
:103ED000F82ECE0101960E94B393B801FF2089F01D
:103EE0008BE796E00E941ECF8AE00E94932F1092EB
:103EF00018111092191110921A1110921B110C9492
:103F0000002A83E696E00E941ECF80EC9DE20E948C
:103F100048CE0C94002A80911C1182FD0E948C8551
:103F200080911C1183FD02C00C94002A60E080E5A2
:103F30000E94BEC1182F682F809182129091831227
:103F40000E947A6A83E50E94B3C8882381F00E94A8
:103F50001EC8AB01BC014093181150931911609316
:103F60001A1170931B118CEF9EE00E94FEE70E94D5
:103F7000986B11110C94002A0E94DD7A0C94002A8F
:103F8000209182123091831290911C119260909333
:103F90001C11C9010E94326A0C94002A0E948E7A78
:103FA0007B018C0120E831E541E050E00F9484076B
:103FB000C9016DE671E00F94DA074B015C01C8019D
:103FC000B70120E13EE040E050E00F948407CA01D1
:103FD000B90128E130E040E050E00F948407762EEC
:103FE000672EC62ED72E8CE3282E312C412C512C37
:103FF000C801B701A20191010F948407F62EE72EA4
:10400000CA01B901A20191010F948407CB018E016D
:104010000F5F1F4F8114910499F0EF92FF927F93ED
:104020006F936F927F92BF92AF929F928F9289E827
:1040300096E09F938F931F930F930F94C60013C026
:10404000A114B104B1F0EF92FF927F936F936F923E
:104050007F92BF92AF928DE896E09F938F931F93CC
:104060000F930F94C6000FB6F894DEBF0FBECDBFFE
:1040700030C0CD2879F0EF92FF927F936F936F92CB
:104080007F9281E996E09F938F931F930F930F94F4
:10409000C600E9CF892B69F0EF92FF927F936F936F
:1040A00085E996E09F938F931F930F930F94C6001B
:1040B000DACFEF92FF9289E996E09F938F931F9357
:1040C0000F930F94C6000F900F900F900F900F90CA
:1040D0000F9060E0C8010E9492740E9435CFB80131
:1040E0008DE996E00E941ECF8AE00E94932F0C94E7
:1040F000002A0E94DD7A0C94002A809113148130EA
:1041000011F00C94002A82E0809313140E945DEC5D
:104110006093E20B7093E30B8093E40B9093E50BB9
:104120000C94002A0E94017B0C94002A809189083B
:1041300083FF02C00C94002A0E947AC187FF02C04C
:104140000C94002A89E40E94B3C8882311F40C94CB
:10415000062B0E9466C190E01816190614F481E03F
:1041600090E026E0289FF001299FF00D1124E45CE7
:10417000F34F808191810C94102B0E9480AF0C949E
:10418000002A0E947AC1182F87FD0AC086E59CE2AA
:104190000E9448CE812F0E9438988AE00E94932F77
:1041A0002A96BFAD2A97B0930A030C94142E60E0B0
:1041B00080E50E94A2C181110C94002A81E40E9432
:1041C00065C8882329F06091C503062F10E002C05E
:1041D0000FEF10E089E40E94B3C8882399F00E9491
:1041E00066C190E01816190614F481E090E026E00C
:1041F000289FF001299FF00D1124E45CF34F048106
:10420000158108C083E50E94B3C8882319F00E9475
:104210001EC88B01B8010F3F110519F010F06FEFA8
:1042200070E06093C5030C94002A60E080E50E9472
:10423000A2C181110C94002A1092C5030C94002A8B
:104240008EE40E94B3C8882311F40C94002A0E94C3
:104250001EC860930B1370930C1380930D139093EF
:104260000E130C94002A83E50E9465C8882331F060
:1042700060E083E50E94A2C1809389080E9435CF47
:104280008EEA96E00E9448CE80918908882369F1E1
:104290001AEBE12E1AE0F12E00E010E020E0809110
:1042A000890890E0A0E0B0E0002E04C0B695A79584
:1042B000979587950A94D2F780FF0EC0DD24D3949A
:1042C000D20E222319F08CE20E94932FF7018591E0
:1042D00094910E9448CE2D2D0F5F1F4FE2E0EE0E0D
:1042E000F11C05301105D9F676CD8AEA96E071CD3C
:1042F00041E060E070E085EB96E00E9439CF0C94DD
:10430000002A0E94492E0C94002A83E50E94B3C81B
:10431000882381F00E9466C1282F30E02D333105BB
:1043200024F4809300020C94002A8CE38093000212
:104330000C94002A0E9435CF4091000250E060E0CA
:1043400070E083EC96E00E94E2CE8AE00E94932F18
:104350000C94002A8091890883FF02C00C94002AE3
:1043600089E40E94B3C8882311F40C94192B0E948D
:1043700066C190E01816190614F481E090E026E07A
:10438000289FF001299FF00D1124E45CF34F628116
:1043900073810C94232B8091890883FF02C00C94B5
:1043A000002A89E40E94B3C8882311F40C94362BA8
:1043B0000E9466C190E01816190614F481E090E09E
:1043C00026E0289FF001299FF00D1124E45CF34FB3
:1043D0006281738118A60C94462B83E50E94B3C8B2
:1043E000882311F40C94002A0E9466C1182F90E0D3
:1043F000CD970CF01CE3109304030E945DEC6B015D
:104400007C01212F30E0A8EEB3E00F94B107C60E77
:10441000D71EE81EF91EC0920003D0920103E0925D
:104420000203F09203030C94002A809109038F7D0C
:104430008061809309030C94002A809109038F7E88
:10444000806280930903DCC783E50E94B3C8882398
:10445000E9F00E945DEC60930F137093101380934A
:104460001113909312130E942EC820E030E04AE707
:1044700054E40F9494010F94B70960930102709370
:1044800002028093030290930402BAC780917E12C5
:1044900084FF02C00C94DF2C8091801287FF02C041
:1044A0000C94DF2C80918112837011F00C94DF2C1E
:1044B0000C94102D83E50E9465C8882309F4A0C7D9
:1044C0000E945DEC60930F1370931013809311138F
:1044D000909312130E942EC820E030E04AE754E483
:1044E0000F9494010F94B70960930503709306032A
:1044F000809307039093080383C70E947AC187FDC6
:104500007FC790917E1294FD04C09091801297FF16
:104510000AC073E8C72E72E0D72EEAE8EE2EE8E074
:10452000FE2E10E009C090918112937091F7682FD0
:1045300081E00E94A1C064C7D6018D916D010E94E7
:10454000B3C8882309F459C0133009F04FC00E9442
:104550002EC84B015C0120E030E040EA51E40F94AA
:104560002E0187FF3AC0A50194016091AA087091BD
:10457000AB088091AC089091AD080F943E092B01D7
:104580003C019B01AC016091BA087091BB0880911D
:10459000BC089091BD080F9494016093BA08709381
:1045A000BB088093BC089093BD086091B9037091DB
:1045B000BA038091BB039091BC030F943301A30114
:1045C00092010F9494010F94B7096093B90370930B
:1045D000BA038093BB039093BC038092AA08909285
:1045E000AB08A092AC08B092AD0807C00E942EC8DC
:1045F000F701648B758B868B978B1F5FF4E0EF0E52
:10460000F11C143009F098CF0E94A184F9C60E94D1
:1046100066E18BE99FE00E949ADCF2C680918212EB
:1046200090918312009709F488CBDC012C9122230E
:1046300009F483CB60E00E949274E2C6009182127A
:104640001091831294E0F12C40E0915021F1F80197
:104650008081282F2B7F213421F421812133D9F42B
:1046600007C08035C1F4818180538A3048F013C07F
:10467000813421F0853421F441E002C0FF24F39419
:1046800098012E5F3F4F89012F5F3F4FF8018081D6
:104690008032C9F3DACF41110E9435CFFF2021F0DB
:1046A0008EE199E00E9448CEC8010E949E30A8C6C3
:1046B0000E94617AA5C681E080931F0980931E093C
:1046C0000E94837A9DC610921F0910921E090E94B3
:1046D000837A96C660E070E083E50E94D7C182309D
:1046E00038F00E9431CF82E299E00E9448CE88C61D
:1046F0008C01112788E40E94B3C88823E1F00E944E
:10470000D3C18A3A910544F00E94D3C185309140CB
:1047100034F40E94D3C105C08AEA90E002C084E06C
:1047200091E026E0209FF001219FF00D1124E45C30
:10473000F34F9183808382E40E94B3C88823D9F029
:104740000E94D3C1059744F00E94D3C18D389105D2
:1047500034F40E94D3C105C085E090E002C08CE82B
:1047600090E026E0209FF001219FF00D1124E45CF1
:10477000F34F9383828386E40E94B3C8882309F4AD
:104780003FC60E94D3C197FD09C00E94D3C18F3F8D
:10479000910509F034F40E94D3C105C080E090E097
:1047A00002C08FEF90E026E0209FF001219FF00DE6
:1047B0001124E45CF34F9583848322C60E947AC15E
:1047C000182F87FD1DC60091750C84E40E94B3C8A4
:1047D000882311F40C94132D0E942EC86B017C01C8
:1047E00020E030E0A9010F942E01882341F124E05C
:1047F0001202F0011124EF58F34FC082D182E282FD
:10480000F38220E030E0A9016091710C7091720C8C
:104810008091730C9091740C0F942E0181110CC037
:1048200080E090E0A0EEBFE38093710C9093720C57
:10483000A093730CB093740C01E00C94132D80E0E2
:104840008093750C0E943C7FDBC50E947AC187FD76
:10485000D7C563E8E62E62E0F62E0AE818E0D70135
:104860008D917D010E9465C8882359F00E942EC851
:104870000F94B709F80160837183828393830E9448
:104880005A840C5F1F4FF8E00A391F0741F7B8C57B
:104890000E947AC187FDB4C553E8E52E52E0F52E9B
:1048A0000AE818E0D7018D917D010E9465C8882330
:1048B00039F00E942EC8F80164A375A386A397A3BC
:1048C0000C5F1F4FF8E00A391F0761F799C5809107
:1048D0007F1287FF02C00C94192D809180128E7078
:1048E00011F00C94192D4091BE085091BF086091B1
:1048F000C0087091C10884E499E00E9400CF409103
:10490000C2085091C3086091C4087091C50888EC32
:104910009EE10E9400CF4091C6085091C708609167
:10492000C8087091C90889EA9FE10E9400CF8AE017
:104930000E94932F65C580917E1281FF02C00C9466
:104940005F2D80917F1281FF02C00C945F2D8091BA
:1049500080128C7011F00C945F2D52C542E2E42E4F
:1049600049E0F42E10E088E5810F0E9465C8882395
:1049700059F00E942EC8D7016D937D938D939C931F
:104980001397812F0E9426751F5FB4E0EB0EF11C78
:10499000133049F78091801287FF02C00C94D51A1A
:1049A00080918112837011F00C94D51A40912209E4
:1049B00050912309609124097091250985E39FE1B5
:1049C0000E9400CF40912609509127096091280943
:1049D000709129098AE091E30E9400CF40912A0951
:1049E00050912B0960912C0970912D0988EC90E36E
:1049F0000E9400CF8AE00E94932F02C540901414B9
:104A0000509015146090161470901714209139026C
:104A100030913A0240913B0250913C02C301B201F5
:104A20000F94440868A779A78AA79BA780901814B9
:104A300090901914A0901A14B0901B1420913D026C
:104A400030913E0240913F0250914002C501B401B5
:104A50000F9444086CA77DA78EA79FA7C0901C1435
:104A6000D0901D14E0901E14F0901F14209141026C
:104A7000309142024091430250914402C701B60175
:104A80000F94440868AB79AB8AAB9BAB209145028D
:104A9000309146024091470250914802C301B20151
:104AA0000F9444082B013C012091490230914A02A5
:104AB00040914B0250914C02C501B4010F9444083F
:104AC0004B015C0120914D0230914E0240914F020A
:104AD00050915002C701B6010F9444086B017C014C
:104AE0000E9435CF83E899E00E9448CE83E50E947A
:104AF00065C8882321F00E94AEC18093370280915F
:104B00003702882319F084EA95E002C08FE398E029
:104B10000E9448CE8BE799E00E9448CE48A559A54F
:104B20006AA57BA584E090E20E9400CF4CA55DA51C
:104B30006EA57FA58AE091E30E9400CF48A959A9FC
:104B40006AA97BA988EC90E30E9400CF86E59FE0EC
:104B50000E9448CE83E799E00E9448CEB301A201AB
:104B600084E090E20E9400CFB501A4018AE091E3C5
:104B70000E9400CFB701A60188EC90E30E9400CF0D
:104B80008AE00E94932F3CC483E50E94B3C8882327
:104B900031F00E94D3C1909324028093230280912C
:104BA0007E1290917F12A0918012B0918112892B78
:104BB0008A2B8B2B09F024C460912302709124026C
:104BC00083E999E00E9411CF85E20E94932F8AE049
:104BD0000E94932F15C40E947AC1F82E87FD10C43D
:104BE00083E50E94B3C80F2D0F2C000C110B8823F6
:104BF00069F10E94D3C1F801EE0FFF1FE75DFD4F81
:104C000091838083000F111F000F111FF801EA5FCD
:104C1000FD4F7F01BC01990F880B990B0F94350153
:104C20002AE037ED43E25CE30F949401F801EF5E74
:104C3000F34F20813181428153810F949401D70138
:104C40006D937D938D939C931397DAC30E9435CF18
:104C500085E40E94932F80E38F0D0E94932F000F15
:104C6000111FF801E75DFD4F6081718187E999E0CF
:104C70000E9411CF85E20E94932F8AE00E94932F19
:104C8000BFC364E071E083E50E948EC08C0168EED2
:104C900073E080E50E948EC08938B3E19B0710F075
:104CA00088E893E1B8010E94D444AAC360E085E497
:104CB0000E94A2C1811173C080E50E9465C888234B
:104CC00051F00E942EC86093E50C7093E60C80931F
:104CD000E70C9093E80C89E40E9465C8882381F072
:104CE0000E942EC82CEA35EC47E25EE30F94940153
:104CF0006093E90C7093EA0C8093EB0C9093EC0CAE
:104D000084E40E9465C8882381F00E942EC82CEAA2
:104D100035EC47E25EE30F943E096093ED0C70932F
:104D2000EE0C8093EF0C9093F00C0E9435CF4091E5
:104D3000E50C5091E60C6091E70C7091E80C87EA65
:104D400099E00E9400CF2CEA35EC47E25EE36091E7
:104D5000E90C7091EA0C8091EB0C9091EC0C0F94A3
:104D60003E09AB01BC0183EA99E00E9400CF2CEA26
:104D700035EC47E25EE36091ED0C7091EE0C8091B2
:104D8000EF0C9091F00C0F949401AB01BC018FE9F2
:104D900099E00E9400CF8AE00E94932F31C30E94C5
:104DA00031CF8BEA99E00E9448CE2AC383E50E9466
:104DB00065C8182F882371F00E942EC80F94B0097F
:104DC00070930B0260930A0221E0672B09F020E048
:104DD0002093D60380E50E9465C8882359F020916E
:104DE0000A0230910B02232B11F00E94AEC1809376
:104DF000D60306C3111104C30E9435CF86ED99E096
:104E00000E9448CE8091D603882319F089E19DE263
:104E100002C08DEB99E00E9448CE60910A02709129
:104E20000B0285EC99E00E9411CF81EC99E00E9481
:104E300048CEE6C20E942C8EE3C283E50E9465C87C
:104E4000182F882321F00E94AEC1982E02C09090A6
:104E5000700C2091C00C3091C10C4091C20C50914B
:104E6000C30C21962CAF3DAF4EAF5FAF2197409062
:104E7000C40C5090C50C6090C60C7090C70C80910B
:104E8000C80C9091C90CA091CA0CB091CB0C25967E
:104E90008CAF9DAFAEAFBFAF2597112329F0911016
:104EA00003C080E00E94D9CA86E50E9465C88CAF25
:104EB00020E030E0A9016091340C7091350C8091B4
:104EC000360C9091370C0F942E01882309F4AAC058
:104ED00083E40E9465C8882309F4B0C00E942EC8EC
:104EE00029966CAF7DAF8EAF9FAF2997A8E4BCE049
:104EF000B9ABA8ABB9A7A8A7F3E0FCA7312C212C2C
:104F000028EC2FAB32EC38AF1CAA812C48EC4DAB0F
:104F100052E45EABE12CF12CE8A5F9A5EE0DFF1DE6
:104F200010810181B280A380212F302F4B2D5A2D6B
:104F30006CA9782D8DA99EA90F94A40A181624F4A3
:104F40001CAB802EBDAAAEAA232D322D4FA958AD81
:104F5000612F702F8B2D9A2D0F94A40A18161CF414
:104F60001801BFAAA8AE84E0E80EF11C9CE0E91687
:104F7000F10491F6ACA5A150ACA7E8A5F9A53C9623
:104F8000F9A7E8A7A111C6CF232D322D4FA958ADFF
:104F90006CA9782D8DA99EA90F94440820E030E0DB
:104FA00040E05FE30F94940129962CAD3DAD4EADEA
:104FB0005FAD29970F9444086B017C012DEB37E31B
:104FC00046E855EB0F94A40A87FD0AC02DEB37E3A2
:104FD00046E855E3C701B6010F942E01181674F583
:104FE00080E00E94D9CA13E0A8A8B9A803E0A701ED
:104FF0009601D5016D917D918D919C910F944308FF
:10500000F50161937193819391935F01015079F759
:10501000115028A939A9245F3F4F39AB28AB111192
:10502000E3CF0CC0911003C03CAD3323D1F00E94FC
:1050300035CF88E29AE00E9448CE20C04CAD442390
:1050400081F020E030E0A9016091340C7091350CC2
:105050008091360C9091370C0F942E0181110E9493
:1050600057CE8AE50E9465C8882329F00E942EC881
:1050700040E00E9449CB892D0E94D9CA992051F065
:105080008091700C811106C00E9431CF89E09AE0B6
:105090000E9448CE0E9435CF8BEF99E00E9448CE07
:1050A0008091700C882319F084EA95E002C08FE3A8
:1050B00098E00E9448CE8AE00E94932F0E9435CF4C
:1050C0008EEE99E00E9448CEC0906C0CD0906D0C92
:1050D000E0906E0CF0906F0C20E030E0A901C70169
:1050E000B6010F94A40A181644F442E0C701B601B1
:1050F0000E9423300E94983004C089EE99E00E94FB
:1051000048CE2091C00C3091C10C4091C20C5091FE
:10511000C30C21966CAD7DAD8EAD9FAD21970F94E4
:105120002E0181110C94D51A2091C40C3091C50C1C
:105130004091C60C5091C70CC301B2010F942E01CF
:1051400081110C94D51A2091C80C3091C90C409152
:10515000CA0C5091CB0C25966CAD7DAD8EAD9FAD3C
:1051600025970F942E01882309F44AC10C94D51A6F
:105170006FEF7FEF89E40E94D7C1082F6FEF7FEFB9
:105180008AE40E94D7C1182F8AE50E94B3C8811112
:1051900008C081E50E94B3C8B82E882309F4E8C48A
:1051A00001C0B12CA02E81E0800F843008F050C0E7
:1051B000912E81E0810F843008F04AC00E942EC8F1
:1051C0002B013C01F02E07FDF12C07FF02C0A2E0ED
:1051D000AA2E812E17FD812C17FF02C0F2E09F2E10
:1051E000AF1408F40DC1E82C8F2D90E06C01CC0CAD
:1051F000DD1CC80ED91E9E1448F10E2D10E0BB20F8
:1052000071F0F601E00FF11FEE0FFF1FEE0FFF1F11
:10521000E85BF34F208131814281538103C020E05C
:1052200030E0A9010C0D1D1D000F111F000F111FF3
:10523000085B134FC301B2010F944408D8016D936A
:105240007D938D939C931397E394D5CFF394C8CF1C
:105250000E9431CF88EC95E00E9448CED1C00E94D8
:1052600065E28111CDC001E916E1E0ECFCE0F9A7AF
:10527000E8A79E012F5F3F4F19019EE8C92E96E1D6
:10528000D92E7901F8016591759185919491A8A520
:10529000B9A58D909D90AD90BD90B9A7A8A7A50187
:1052A00094010F9443082B013C01F7016083718343
:1052B0008283938320E030E040EA51EC0F94A40A0B
:1052C00087FD0AC020E030E040EA51E4C301B201AA
:1052D0000F942E0118162CF4F601849118160CF474
:1052E0004EC4D7018D909D90AD90BD907D0120E082
:1052F00030E040EA51ECC501B4010F94A40A87FDE7
:1053000049C420E030E040EA51E4C501B4010F9403
:105310002E0118160CF052C43DC40E9440D670C035
:105320000E94E1CF6DC0209382130E94E0D01092C2
:105330008213882309F464C00E9435CF83E99AE080
:105340000E9448CE5DC080911C1182FF04C0806421
:1053500080931C1155C083FF53C00E9440E250C08F
:1053600081E08093B40A10929C0B60E083E50E9478
:10537000BEC1811145C00E94D3B142C00E948E7A45
:105380006D3371058105910520F086EB9AE00E944E
:1053900053B982EB9AE00E9453B98EE99AE00E94D9
:1053A00048CE8AEC9EE09093300980932F0928C064
:1053B0000E9457E225C000918412109185120E942C
:1053C0005DEC60930F1370931013809311139093FF
:1053D00012130023A9F00E9435CF84E50E94932F79
:1053E000B801772780E090E00E94073080E20E94B9
:1053F000932F8BEA99E00E9448CE02C00E9457E2A8
:105400002C96FFAD2C97F11102C00E94C3B12A96D1
:105410002FAD2A9720930A0307C40E948C8510920F
:1054200038021092E50880E00E94D9CA0E945DEC23
:1054300060930F13709310138093111390931213B2
:105440000E94BE7881E080931F090E94837A8AE5DA
:105450000E9465C8F82E88E50E9465C8182F89E566
:105460000E9465C818138AC0F11611F0012F04C0FC
:1054700001E011E0FF24F39482E50E94B3C8882381
:1054800069F00E942EC84B015C0120E030E0A901C8
:105490000F942E01882309F454C006C0812C912C4E
:1054A00040EAA42E40E4B42E111103C0002309F4F5
:1054B00052C020E030E0A901C501B4010F944408B6
:1054C000762E872E982EA92EB090C80CC090C90CAD
:1054D000D090CA0CE090CB0C2B2D3C2D4D2D5E2D89
:1054E0000F942E0187FD03C0B72C6401EA2C80E0E5
:1054F00090E0A0E8B0E48C8F9D8FAE8FBF8F20E04E
:1055000030E048EC53E46B2D7C2D8D2D9E2D0F94B7
:105510002E0187FF03C09D2D8E2D04C0B12CC12C00
:1055200098EC83E44B2D5C2D692F782F49835A83A7
:105530006B837C83BE01645E7F4FCE0101960E9427
:10554000B979112319F080E00E9403F9002319F0C2
:1055500081E00E9403F9FF2019F082E00E9403F924
:105560000E94D87980911E0980931F090E94A57816
:1055700083E0809374020E94DA7942CF082F7CCFB7
:105580000E94BF300C941D1E10929D0B10930A03B5
:105590000E94CBE135CF88E50E9465C881115F98F4
:1055A00089E50E9465C881118A988AE50E9465C8CC
:1055B000882329F08091080181708093060185E499
:1055C0000E9465C8882309F41BCF129819CF60E0A8
:1055D00084EF95E00E9436745F988A988091080164
:1055E00081708093060112980BCF0E941EC8AB01F8
:1055F000BC01409318115093191160931A117093C4
:105600001B118CEF9EE00E94FEE7FACE83E50E941C
:10561000B3C8882359F00E942EC80F94B009CB015B
:105620000E94289861E080E00E94C6D60E941B84F8
:10563000E7CE83E50E94B3C8882309F4E1CE0E9437
:105640002EC80F94B0096C3871056CF4962F872F13
:1056500090932D0C80932E0C0E9456D661E080E032
:105660000E94C6D6CDCE9CE880E0F2CF83E50E94B2
:10567000B3C888A7811106C082E50E94B3C88823F9
:1056800009F4BECE0E942EC80F94B0096C38710583
:105690000CF092C1962F872F90932D0C80932E0C97
:1056A0000E9456D660E081E00E94C6D660912D0C23
:1056B00070912E0C072E000C880B990B0F9435015E
:1056C0002091290C30912A0C40912B0C50912C0CDC
:1056D0000F94A40A18161CF489ED96E002C08AEC17
:1056E00096E060E00E94367481E080931C0218AA64
:1056F00019AA1AAA1BAA18AE19AE1AAE1BAE1DAE75
:10570000FCE32296FFAF22972CE126962FAF269737
:1057100036E42B963FAF2B97C12CD12CA0E8EA2E74
:10572000BFEBFB2E1CA641E04CAF812C912C540109
:1057300060912D0C70912E0C072E000C880B990B8C
:105740000F943501162F072F782E692E9601A70189
:105750000F942E01882331F12091290C30912A0CCD
:1057600040912B0C50912C0C88A5612F702F81112A
:1057700009C0872D962D0F942E01881F8827881F1A
:105780008CA716C0872D962D0F942E0187FF0FC072
:1057900080911C02882309F433CE10921C020E94CF
:1057A000CBE12ECE1C2D0D2D7E2C6F2C01C01CA606
:1057B0000E945DEC6B017C01DC01CB0128AD39ADB1
:1057C0004AAD5BAD821B930BA40BB50BB7FD33C089
:1057D000D701C60188519C4FAF4FBF4F88AF99AFDB
:1057E000AAAFBBAF80E00E94389882E69CE20E949C
:1057F00048CE81149104A104B104B9F0D501C401CB
:10580000805F984DAF4FBF4FBC01CD016C197D0932
:105810008E099F0928EE33E040E050E00F948407A2
:10582000CA01B9010E94073003C08FE30E94932F81
:105830008AE00E94932F0E94BF300E945DEC60932B
:105840000F13709310138093111390931213909170
:10585000290C9CABA0912A0CADABB0912B0CBEAB2C
:10586000E0912C0CEFAB292F3A2F4B2F5E2F612F9D
:10587000702F872D962D0F9443081B012C0120E0DB
:1058800030E0A9010F94A40A87FF04C057FA50948E
:1058900057F8509481149104A104B104E1F420E07C
:1058A00030E040E85FE3C201B1010F942E0187FFB1
:1058B0001EC0FCADFF2339F0F5E08F2EFDE09F2EDA
:1058C000A12CB12C03C0812C912C54018C0C9D1C5B
:1058D000AE1CBF1C0CC020E030E040E450E4C2012C
:1058E000B1010F94A40A181614F4460157012CA50F
:1058F000222309F444C088A999A9AAA9BBA9892B84
:105900008A2B8B2B61F0D701C60128A939A94AA996
:105910005BA9821B930BA40BB50BB7FD30C02CA960
:105920003DA94EA95FA96DAD22967FAD229726961F
:105930008FAD26972B969FAD2B970F94430820E0B1
:1059400030E040E85FE30F942E0187FD21CFD701BF
:10595000C601805A9541AF4FBF4F88AB99ABAAABF8
:10596000BBAB9CA99DAFADA92296AFAF2297BEA9B4
:105970002696BFAF2697EFA92B96EFAF2B97809176
:105980001C02882309F404CF81149104A104B104FA
:1059900031F41CAEC12ED02EE72CF62CC9CEF0E18E
:1059A000CF1AF7E2DF0AE108F108C818D908EA08B7
:1059B000FB08F7FCEECFECCE9CE880E06DCE0E94B9
:1059C0008C8588E50E9465C8882331F05F9A8091B4
:1059D00021098E7F8093210989E50E9465C888236B
:1059E00031F08A9A809121098D7F809321098AE57F
:1059F0000E9465C8882359F08091080180958170C4
:105A000080930601809121098B7F8093210985E491
:105A10000E9465C8882309F4F3CC0E942E2EF0CC96
:105A20000E949C85EDCC602F83E50E94BEC10C9442
:105A3000202483E50E94B3C8882391F00E942EC8D9
:105A40006093BE087093BF088093C0089093C1080C
:105A50006093C6087093C7088093C8089093C908DC
:105A600080E50E94B3C8882351F00E942EC860933D
:105A7000BE087093BF088093C0089093C10882E568
:105A80000E94B3C8882351F00E942EC86093C208B8
:105A90007093C3088093C4089093C50884E50E945E
:105AA000B3C8882309F4ACCC0E942EC86093C60802
:105AB0007093C7088093C8089093C908A1CC82E46A
:105AC0000E9465C8882351F00E94DCC060939A0848
:105AD00070939B0880939C0890939D0883E50E9497
